{"abi":[{"type":"function","name":"CODE_OK","inputs":[],"outputs":[{"name":"","type":"uint32","internalType":"uint32"}],"stateMutability":"view"},{"type":"function","name":"DECREASE_RATE","inputs":[],"outputs":[{"name":"","type":"uint256","internalType":"uint256"}],"stateMutability":"view"},{"type":"function","name":"FELONY_THRESHOLD","inputs":[],"outputs":[{"name":"","type":"uint256","internalType":"uint256"}],"stateMutability":"view"},{"type":"function","name":"GOVERNOR_ADDR","inputs":[],"outputs":[{"name":"","type":"address","internalType":"address"}],"stateMutability":"view"},{"type":"function","name":"GOV_HUB_ADDR","inputs":[],"outputs":[{"name":"","type":"address","internalType":"address"}],"stateMutability":"view"},{"type":"function","name":"GOV_TOKEN_ADDR","inputs":[],"outputs":[{"name":"","type":"address","internalType":"address"}],"stateMutability":"view"},{"type":"function","name":"INIT_FELONY_SLASH_REWARD_RATIO","inputs":[],"outputs":[{"name":"","type":"uint256","internalType":"uint256"}],"stateMutability":"view"},{"type":"function","name":"INIT_FELONY_SLASH_SCOPE","inputs":[],"outputs":[{"name":"","type":"uint256","internalType":"uint256"}],"stateMutability":"view"},{"type":"function","name":"MISDEMEANOR_THRESHOLD","inputs":[],"outputs":[{"name":"","type":"uint256","internalType":"uint256"}],"stateMutability":"view"},{"type":"function","name":"SLASH_CONTRACT_ADDR","inputs":[],"outputs":[{"name":"","type":"address","internalType":"address"}],"stateMutability":"view"},{"type":"function","name":"STAKE_CREDIT_ADDR","inputs":[],"outputs":[{"name":"","type":"address","internalType":"address"}],"stateMutability":"view"},{"type":"function","name":"STAKE_HUB_ADDR","inputs":[],"outputs":[{"name":"","type":"address","internalType":"address"}],"stateMutability":"view"},{"type":"function","name":"SYSTEM_REWARD_ADDR","inputs":[],"outputs":[{"name":"","type":"address","internalType":"address"}],"stateMutability":"view"},{"type":"function","name":"TIMELOCK_ADDR","inputs":[],"outputs":[{"name":"","type":"address","internalType":"address"}],"stateMutability":"view"},{"type":"function","name":"VALIDATOR_CONTRACT_ADDR","inputs":[],"outputs":[{"name":"","type":"address","internalType":"address"}],"stateMutability":"view"},{"type":"function","name":"alreadyInit","inputs":[],"outputs":[{"name":"","type":"bool","internalType":"bool"}],"stateMutability":"view"},{"type":"function","name":"chainID","inputs":[],"outputs":[{"name":"","type":"uint16","internalType":"uint16"}],"stateMutability":"view"},{"type":"function","name":"clean","inputs":[],"outputs":[],"stateMutability":"nonpayable"},{"type":"function","name":"downtimeSlash","inputs":[{"name":"validator","type":"address","internalType":"address"},{"name":"count","type":"uint256","internalType":"uint256"},{"name":"shouldRevert","type":"bool","internalType":"bool"}],"outputs":[],"stateMutability":"nonpayable"},{"type":"function","name":"enableMaliciousVoteSlash","inputs":[],"outputs":[{"name":"","type":"bool","internalType":"bool"}],"stateMutability":"view"},{"type":"function","name":"felonySlashRewardRatio","inputs":[],"outputs":[{"name":"","type":"uint256","internalType":"uint256"}],"stateMutability":"view"},{"type":"function","name":"felonySlashScope","inputs":[],"outputs":[{"name":"","type":"uint256","internalType":"uint256"}],"stateMutability":"view"},{"type":"function","name":"felonyThreshold","inputs":[],"outputs":[{"name":"","type":"uint256","internalType":"uint256"}],"stateMutability":"view"},{"type":"function","name":"getSlashIndicator","inputs":[{"name":"validator","type":"address","internalType":"address"}],"outputs":[{"name":"","type":"uint256","internalType":"uint256"},{"name":"","type":"uint256","internalType":"uint256"}],"stateMutability":"view"},{"type":"function","name":"getSlashThresholds","inputs":[],"outputs":[{"name":"","type":"uint256","internalType":"uint256"},{"name":"","type":"uint256","internalType":"uint256"}],"stateMutability":"view"},{"type":"function","name":"indicators","inputs":[{"name":"","type":"address","internalType":"address"}],"outputs":[{"name":"height","type":"uint256","internalType":"uint256"},{"name":"count","type":"uint256","internalType":"uint256"},{"name":"exist","type":"bool","internalType":"bool"}],"stateMutability":"view"},{"type":"function","name":"init","inputs":[],"outputs":[],"stateMutability":"nonpayable"},{"type":"function","name":"misdemeanorThreshold","inputs":[],"outputs":[{"name":"","type":"uint256","internalType":"uint256"}],"stateMutability":"view"},{"type":"function","name":"previousHeight","inputs":[],"outputs":[{"name":"","type":"uint256","internalType":"uint256"}],"stateMutability":"view"},{"type":"function","name":"sendFelonyPackage","inputs":[{"name":"validator","type":"address","internalType":"address"}],"outputs":[],"stateMutability":"nonpayable"},{"type":"function","name":"slash","inputs":[{"name":"validator","type":"address","internalType":"address"}],"outputs":[],"stateMutability":"nonpayable"},{"type":"function","name":"submitDoubleSignEvidence","inputs":[{"name":"header1","type":"bytes","internalType":"bytes"},{"name":"header2","type":"bytes","internalType":"bytes"}],"outputs":[],"stateMutability":"nonpayable"},{"type":"function","name":"submitFinalityViolationEvidence","inputs":[{"name":"_evidence","type":"tuple","internalType":"struct SlashIndicator.FinalityEvidence","components":[{"name":"voteA","type":"tuple","internalType":"struct SlashIndicator.VoteData","components":[{"name":"srcNum","type":"uint256","internalType":"uint256"},{"name":"srcHash","type":"bytes32","internalType":"bytes32"},{"name":"tarNum","type":"uint256","internalType":"uint256"},{"name":"tarHash","type":"bytes32","internalType":"bytes32"},{"name":"sig","type":"bytes","internalType":"bytes"}]},{"name":"voteB","type":"tuple","internalType":"struct SlashIndicator.VoteData","components":[{"name":"srcNum","type":"uint256","internalType":"uint256"},{"name":"srcHash","type":"bytes32","internalType":"bytes32"},{"name":"tarNum","type":"uint256","internalType":"uint256"},{"name":"tarHash","type":"bytes32","internalType":"bytes32"},{"name":"sig","type":"bytes","internalType":"bytes"}]},{"name":"voteAddr","type":"bytes","internalType":"bytes"}]}],"outputs":[],"stateMutability":"nonpayable"},{"type":"function","name":"updateParam","inputs":[{"name":"key","type":"string","internalType":"string"},{"name":"value","type":"bytes","internalType":"bytes"}],"outputs":[],"stateMutability":"nonpayable"},{"type":"function","name":"validators","inputs":[{"name":"","type":"uint256","internalType":"uint256"}],"outputs":[{"name":"","type":"address","internalType":"address"}],"stateMutability":"view"},{"type":"event","name":"failedFelony","inputs":[{"name":"validator","type":"address","indexed":true,"internalType":"address"},{"name":"slashCount","type":"uint256","indexed":false,"internalType":"uint256"},{"name":"failReason","type":"bytes","indexed":false,"internalType":"bytes"}],"anonymous":false},{"type":"event","name":"indicatorCleaned","inputs":[],"anonymous":false},{"type":"event","name":"paramChange","inputs":[{"name":"key","type":"string","indexed":false,"internalType":"string"},{"name":"value","type":"bytes","indexed":false,"internalType":"bytes"}],"anonymous":false},{"type":"event","name":"validatorSlashed","inputs":[{"name":"validator","type":"address","indexed":true,"internalType":"address"}],"anonymous":false}],"bytecode":{"object":"0x608060405234801561001057600080fd5b5061315a806100206000396000f3fe608060405234801561001057600080fd5b50600436106102115760003560e01c80638256ace611610125578063c80d4b8f116100ad578063dcc6f1561161007c578063dcc6f156146103d2578063df8079e9146103da578063e1c7392a146103e2578063f9a2bbc7146103ea578063fc4333cd146103f257610211565b8063c80d4b8f1461039c578063c81b1662146103a4578063c96be4cb146103ac578063cc844b73146103bf57610211565b8063aa82dce1116100f4578063aa82dce11461034f578063ab51bb9614610357578063ac0af6291461036c578063ac43175114610374578063adc879e91461038757610211565b80638256ace61461032f5780639dc09262146103375780639f804f5f1461033f578063a78abc161461034757610211565b8063389f4f71116101a8578063567a372d11610177578063567a372d146102fc5780635bfb49901461030457806362b72cf5146103175780637912a65d1461031f5780637e434d541461032757610211565b8063389f4f71146102dc57806343756e5c146102e457806350055f90146102ec57806351b4dce3146102f457610211565b806328aa02b1116101e457806328aa02b1146102805780633306ccca1461029357806335aa2e44146102a857806337c8dab9146102bb57610211565b806322d1e80b1461021657806323bac5a2146102345780632796211814610256578063280870281461026b575b600080fd5b61021e6103fa565b60405161022b9190612943565b60405180910390f35b6102476102423660046125a9565b610403565b60405161022b93929190613063565b610269610264366004612701565b610426565b005b610273610784565b60405161022b9190612916565b61026961028e3660046125e1565b61078a565b61029b6107bb565b60405161022b919061302b565b6102736102b6366004612874565b6107c1565b6102ce6102c93660046125a9565b6107e8565b60405161022b929190613055565b61029b61083f565b610273610845565b61029b61084b565b610273610851565b61029b610857565b6102696103123660046125a9565b61085d565b61029b6108e5565b61029b6108eb565b6102736108f0565b6102ce6108f6565b610273610900565b61029b610906565b61021e61090c565b610273610915565b61035f61091b565b60405161022b919061307b565b61029b610920565b610269610382366004612758565b610925565b61038f610ec1565b60405161022b919061301c565b61029b610ec6565b610273610ecb565b6102696103ba3660046125a9565b610ed1565b6102696103cd3660046127c1565b6111ee565b61029b61168d565b610273611692565b610269611698565b6102736116d4565b6102696116da565b60075460ff1681565b600260208190526000918252604090912080546001820154919092015460ff1683565b60005460ff166104515760405162461bcd60e51b815260040161044890612a4d565b60405180910390fd5b60065461045e5760146006555b60085461046c576170806008555b81511580159061047c5750805115155b6104985760405162461bcd60e51b815260040161044890612eda565b60408051600380825260808201909252606091816020015b60608152602001906001900390816104b05790505090506104d16038611b23565b816000815181106104de57fe5b60200260200101819052506104f283611b3e565b816001815181106104ff57fe5b602002602001018190525061051382611b3e565b8160028151811061052057fe5b6020026020010181905250606061053682611b94565b60408051603480825260608281019093529293509091602082018180368337019050509050815160346020830182602086016068600019fa61057757600080fd5b506014810151603482015160405163436aa28360e11b8152600090612002906386d54506906105aa908690600401612916565b60206040518083038186803b1580156105c257600080fd5b505afa1580156105d6573d6000803e3d6000fd5b505050506040513d601f19601f820116820180604052508101906105fa91906125c5565b6001600160a01b031614156106215760405162461bcd60e51b815260040161044890612a1d565b43600854820110156106455760405162461bcd60e51b8152600401610448906129be565b604051631871f7d960e31b81526120029063c38fbec89061066a908590600401612916565b600060405180830381600087803b15801561068457600080fd5b505af1158015610698573d6000803e3d6000fd5b50506040516335409f7f60e01b815261100092506335409f7f91506106c1908590600401612916565b600060405180830381600087803b1580156106db57600080fd5b505af11580156106ef573d6000803e3d6000fd5b50506006546040516309a99b4f60e41b815260646110028031909302049350909150639a99b4f090610727903390859060040161292a565b602060405180830381600087803b15801561074157600080fd5b505af1158015610755573d6000803e3d6000fd5b505050506040513d601f19601f82011682018060405250810190610779919061288c565b505050505050505050565b61200581565b33611000146107ab5760405162461bcd60e51b815260040161044890612c90565b6107b6838383611c25565b505050565b61708081565b600181815481106107ce57fe5b6000918252602090912001546001600160a01b0316905081565b6000806107f36123dc565b5050506001600160a01b0316600090815260026020818152604092839020835160608101855281548082526001830154938201849052919093015460ff16151592909301919091529091565b60055481565b61100181565b60065481565b61200681565b60045481565b336110001461087e5760405162461bcd60e51b815260040161044890612c90565b60005460ff166108a05760405162461bcd60e51b815260040161044890612a4d565b806001600160a01b03167fd7bc86ff5d08c8ab043edec743302aba2520e6635172a428bc956721db9e2d1c60006040516108da9190612961565b60405180910390a250565b60035481565b603281565b61200381565b6004546005549091565b61100781565b60085481565b60005460ff1681565b61200281565b600081565b600481565b60005460ff166109475760405162461bcd60e51b815260040161044890612a4d565b33611007146109685760405162461bcd60e51b815260040161044890612dc9565b6109d384848080601f016020809104026020016040519081016040528093929190818152602001838380828437600092019190915250506040805180820190915260148152731b5a5cd9195b59585b9bdc951a1c995cda1bdb1960621b60208201529150611e5e9050565b15610a6e57602081146109f85760405162461bcd60e51b815260040161044890612c1c565b604080516020601f8401819004810282018101909252828152600091610a3691858580838501838280828437600092019190915250611eb892505050565b905060018110158015610a4a575060055481105b610a665760405162461bcd60e51b815260040161044890612f00565b600455610e7e565b610ad484848080601f0160208091040260200160405190810160405280939291908181526020018383808284376000920191909152505060408051808201909152600f81526e19995b1bdb9e551a1c995cda1bdb19608a1b60208201529150611e5e9050565b15610b705760208114610af95760405162461bcd60e51b815260040161044890612e17565b604080516020601f8401819004810282018101909252828152600091610b3791858580838501838280828437600092019190915250611eb892505050565b90506103e88111158015610b4c575060045481115b610b685760405162461bcd60e51b815260040161044890612b06565b600555610e7e565b610bdd84848080601f0160208091040260200160405190810160405280939291908181526020018383808284376000920191909152505060408051808201909152601681527566656c6f6e79536c617368526577617264526174696f60501b60208201529150611e5e9050565b15610c775760208114610c025760405162461bcd60e51b815260040161044890612d51565b604080516020601f8401819004810282018101909252828152600091610c4091858580838501838280828437600092019190915250611eb892505050565b9050600a8110158015610c535750606481105b610c6f5760405162461bcd60e51b815260040161044890612e59565b600655610e7e565b610ceb84848080601f0160208091040260200160405190810160405280939291908181526020018383808284376000920191909152505060408051808201909152601881527f656e61626c654d616c6963696f7573566f7465536c617368000000000000000060208201529150611e5e9050565b15610d625760208114610d105760405162461bcd60e51b815260040161044890612b3b565b604080516020601f8401819004810282018101909252828152610d4c9190848480838501838280828437600092019190915250611ebd92505050565b6007805460ff1916911515919091179055610e7e565b610dc984848080601f0160208091040260200160405190810160405280939291908181526020018383808284376000920191909152505060408051808201909152601081526f66656c6f6e79536c61736853636f706560801b60208201529150611e5e9050565b15610e665760208114610dee5760405162461bcd60e51b815260040161044890612ce0565b604080516020601f8401819004810282018101909252828152600091610e2c91858580838501838280828437600092019190915250611eb892505050565b90506170808110158015610e425750620d2f0081105b610e5e5760405162461bcd60e51b815260040161044890612a84565b600855610e7e565b60405162461bcd60e51b815260040161044890612f92565b7f6cdb0ac70ab7f2e2d035cca5be60d89906f2dede7648ddbd7402189c1eeed17a84848484604051610eb3949392919061298c565b60405180910390a150505050565b603881565b609681565b61100281565b334114610ef05760405162461bcd60e51b815260040161044890612f45565b60005460ff16610f125760405162461bcd60e51b815260040161044890612a4d565b6003544311610f335760405162461bcd60e51b815260040161044890612fe7565b3a15610f515760405162461bcd60e51b815260040161044890612d23565b60405163155853f360e21b8152611000906355614fcc90610f76908490600401612916565b60206040518083038186803b158015610f8e57600080fd5b505afa158015610fa2573d6000803e3d6000fd5b505050506040513d601f19601f82011682018060405250810190610fc691906126e5565b610fcf576111e7565b610fd76123dc565b506001600160a01b0381166000908152600260208181526040928390208351606081018552815481526001820154928101929092529091015460ff16158015928201929092529061103257602081018051600101905261108b565b60016040820181905260208201819052805480820182556000919091527fb10e2d527612073b26eecdfd717e6a320cf44b4afac2b0732d9fcbe2b7fa0cf60180546001600160a01b0319166001600160a01b0384161790555b43815260055460208201518161109d57fe5b0661111557600060208201526040516335409f7f60e01b8152611000906335409f7f906110ce908590600401612916565b600060405180830381600087803b1580156110e857600080fd5b505af11580156110fc573d6000803e3d6000fd5b505050506111108282602001516000611c25565b611181565b60045481602001518161112457fe5b06611181576040516375abf10160e11b81526110009063eb57e2029061114e908590600401612916565b600060405180830381600087803b15801561116857600080fd5b505af115801561117c573d6000803e3d6000fd5b505050505b6001600160a01b0382166000818152600260208181526040808420865181559186015160018301558581015191909201805460ff1916911515919091179055517fddb6012116e51abf5436d956a4f0ebd927e92c576ff96d7918290c8782291e3e9190a2505b5043600355565b60005460ff166112105760405162461bcd60e51b815260040161044890612a4d565b60075460ff166112325760405162461bcd60e51b8152600401610448906129e8565b60065461123f5760146006555b60085461124d576170806008555b60085481516040015143910111801561127157504360085482602001516040015101115b61128d5760405162461bcd60e51b815260040161044890612fb9565b8060200151602001518160000151602001511480156112bb5750806020015160600151816000015160600151145b156112d85760405162461bcd60e51b815260040161044890612c63565b8051604081015190511080156112f75750602081015160408101519051105b6113135760405162461bcd60e51b815260040161044890612be5565b6020810151518151511080156113385750806000015160400151816020015160400151105b8061136357508051516020820151511080156113635750806020015160400151816000015160400151105b8061137d5750806020015160400151816000015160400151145b6113995760405162461bcd60e51b815260040161044890612acf565b604080820151905163ea321e4960e01b81526110009163ea321e49916113c2919060040161294e565b60206040518083038186803b1580156113da57600080fd5b505afa1580156113ee573d6000803e3d6000fd5b505050506040513d601f19601f8201168201806040525081019061141291906126e5565b61142e5760405162461bcd60e51b815260040161044890612d9a565b61144081600001518260400151611ee5565b8015611459575061145981602001518260400151611ee5565b6114755760405162461bcd60e51b815260040161044890612b86565b6060806110006001600160a01b0316633b071dcc6040518163ffffffff1660e01b815260040160006040518083038186803b1580156114b357600080fd5b505afa1580156114c7573d6000803e3d6000fd5b505050506040513d6000823e601f3d908101601f191682016040526114ef9190810190612622565b9150915060005b815181101561162c5761152082828151811061150e57fe5b602002602001015185604001516120bd565b15611624576006546040516309a99b4f60e41b815260646110028031909302049190639a99b4f090611558903390859060040161292a565b602060405180830381600087803b15801561157257600080fd5b505af1158015611586573d6000803e3d6000fd5b505050506040513d601f19601f820116820180604052508101906115aa919061288c565b506110006001600160a01b03166335409f7f8584815181106115c857fe5b60200260200101516040518263ffffffff1660e01b81526004016115ec9190612916565b600060405180830381600087803b15801561160657600080fd5b505af115801561161a573d6000803e3d6000fd5b505050505061162c565b6001016114f6565b506040808401519051630e9fbf5160e01b815261200291630e9fbf5191611656919060040161294e565b600060405180830381600087803b15801561167057600080fd5b505af1158015611684573d6000803e3d6000fd5b50505050505050565b601481565b61200481565b60005460ff16156116bb5760405162461bcd60e51b815260040161044890612ea3565b603260045560966005556000805460ff19166001179055565b61100081565b33611000146116fb5760405162461bcd60e51b815260040161044890612c90565b60005460ff1661171d5760405162461bcd60e51b815260040161044890612a4d565b60015461172957611b21565b600154600090600019015b808211611af5576000805b828410156118585761174f6123dc565b600260006001878154811061176057fe5b60009182526020808320909101546001600160a01b0316835282810193909352604091820190208151606081018352815481526001820154938101939093526002015460ff161515908201526005549091506004900481602001511115611842576004600554816117cd57fe5b048160200151038160200181815250508060026000600188815481106117ef57fe5b6000918252602080832091909101546001600160a01b0316835282810193909352604091820190208351815591830151600183015591909101516002909101805460ff191691151591909117905561184c565b6001925050611858565b5083600101935061173f565b8284116119ef576118676123dc565b600260006001868154811061187857fe5b60009182526020808320909101546001600160a01b0316835282810193909352604091820190208151606081018352815481526001820154938101939093526002015460ff161515908201526005549091506004900481602001511115611960576004600554816118e557fe5b0481602001510381602001818152505080600260006001878154811061190757fe5b6000918252602080832091909101546001600160a01b03168352828101939093526040918201902083518155918301516001808401919091559201516002909101805460ff191691151591909117905591506119ef9050565b600260006001868154811061197157fe5b60009182526020808320909101546001600160a01b031683528201929092526040018120818155600181810192909255600201805460ff191690558054806119b557fe5b600082815260209020810160001990810180546001600160a01b0319169055019055836119e257506119ef565b5060001990920191611858565b8180156119f95750805b15611ad8576002600060018681548110611a0f57fe5b60009182526020808320909101546001600160a01b031683528201929092526040018120818155600181810192909255600201805460ff19169055805484908110611a5657fe5b600091825260209091200154600180546001600160a01b039092169186908110611a7c57fe5b9060005260206000200160006101000a8154816001600160a01b0302191690836001600160a01b031602179055506001805480611ab557fe5b600082815260209020810160001990810180546001600160a01b03191690550190555b82611ae4575050611af5565b505060019091019060001901611734565b6040517fcfdb3b6ccaeccbdc68be3c59c840e3b3c90f0a7c491f5fff1cf56cfda200dd9c90600090a150505b565b6060611b36611b3183612121565b611b3e565b90505b919050565b606081516001148015611b705750607f60f81b82600081518110611b5e57fe5b01602001516001600160f81b03191611155b15611b7c575080611b39565b611b36611b8e8351608060ff16612207565b836122d9565b6060815160001415611bb55750604080516000815260208101909152611b39565b606082600081518110611bc457fe5b602002602001015190506000600190505b8351811015611c0557611bfb82858381518110611bee57fe5b60200260200101516122d9565b9150600101611bd5565b50611c1e611c18825160c060ff16612207565b826122d9565b9392505050565b8015611c87576040516375cc7d8960e01b8152612002906375cc7d8990611c50908690600401612916565b600060405180830381600087803b158015611c6a57600080fd5b505af1158015611c7e573d6000803e3d6000fd5b505050506107b6565b6040516375cc7d8960e01b8152612002906375cc7d8990611cac908690600401612916565b600060405180830381600087803b158015611cc657600080fd5b505af1925050508015611cd7575060015b6107b6576040516000815260443d1015611cf357506000611d90565b60046000803e60005160e01c6308c379a08114611d14576000915050611d90565b60043d036004833e81513d602482011167ffffffffffffffff82111715611d4057600092505050611d90565b808301805167ffffffffffffffff811115611d62576000945050505050611d90565b8060208301013d8601811115611d8057600095505050505050611d90565b601f01601f191660405250925050505b80611d9b5750611de4565b836001600160a01b03167fd7bc86ff5d08c8ab043edec743302aba2520e6635172a428bc956721db9e2d1c8483604051611dd6929190613034565b60405180910390a250611e59565b3d808015611e0e576040519150601f19603f3d011682016040523d82523d6000602084013e611e13565b606091505b50836001600160a01b03167fd7bc86ff5d08c8ab043edec743302aba2520e6635172a428bc956721db9e2d1c8483604051611e4f929190613034565b60405180910390a2505b6107b6565b600081604051602001611e7191906128fa565b6040516020818303038152906040528051906020012083604051602001611e9891906128fa565b604051602081830303815290604052805190602001201490505b92915050565b015190565b8082015160009060ff811615611ed7576001915081611edd565b60009150815b505092915050565b60408051600480825260a0820190925260009160609190816020015b6060815260200190600190039081611f01575050604080516020808252818301909252919250606091908082018180368337019050509050611f468560000151611b23565b82600081518110611f5357fe5b6020026020010181905250611f6e6020866020015183612356565b611f7781611b3e565b82600181518110611f8457fe5b6020026020010181905250611f9c8560400151611b23565b82600281518110611fa957fe5b6020026020010181905250611fc46020866060015183612356565b611fcd81611b3e565b82600381518110611fda57fe5b60200260200101819052506120006020611ff384611b94565b8051906020012083612356565b6040805160b080825260e08201909252606091602082018180368337019050509050612030818360006020612366565b61204281876080015160206060612366565b612050818660806030612366565b604080516001808252818301909252606091602082018180368337019050509050815160016020830182602086016066600019fa61208d57600080fd5b50600161209b8260006123c0565b60ff16146120b0576000945050505050611eb2565b5060019695505050505050565b8151815160009160019181148083146120d95760009250612117565b600160208701838101602088015b6002848385100114156121125780518351146121065760009650600093505b602092830192016120e7565b505050505b5090949350505050565b604080516020808252818301909252606091829190602082018180368337505050602081018490529050600067ffffffffffffffff19841661216557506018612189565b6fffffffffffffffffffffffffffffffff19841661218557506010612189565b5060005b60208110156121bf5781818151811061219e57fe5b01602001516001600160f81b031916156121b7576121bf565b600101612189565b60008160200390506060816040519080825280601f01601f1916602001820160405280156121f4576020820181803683370190505b5080830196909652508452509192915050565b60606801000000000000000083106122315760405162461bcd60e51b815260040161044890612bbd565b6040805160018082528183019092526060916020820181803683370190505090506037841161228b5782840160f81b8160008151811061226d57fe5b60200101906001600160f81b031916908160001a9053509050611eb2565b606061229685612121565b90508381510160370160f81b826000815181106122af57fe5b60200101906001600160f81b031916908160001a9053506122d082826122d9565b95945050505050565b6060806040519050835180825260208201818101602087015b8183101561230a5780518352602092830192016122f2565b50855184518101855292509050808201602086015b8183101561233757805183526020928301920161231f565b508651929092011591909101601f01601f191660405250905092915050565b9091018181526020918201910152565b60005b818110156123b95783818151811061237d57fe5b602001015160f81c60f81b85848060010195508151811061239a57fe5b60200101906001600160f81b031916908160001a905350600101612369565b5050505050565b600081600101835110156123d357600080fd5b50016001015190565b604051806060016040528060008152602001600081526020016000151581525090565b600082601f83011261240f578081fd5b815161242261241d826130b3565b61308c565b818152915060208083019084810160005b84811015612498578151870188603f82011261244e57600080fd5b8381015161245e61241d826130d3565b81815260408b8184860101111561247457600080fd5b612483838884018387016130f7565b50865250509282019290820190600101612433565b505050505092915050565b60008083601f8401126124b4578182fd5b50813567ffffffffffffffff8111156124cb578182fd5b6020830191508360208285010111156124e357600080fd5b9250929050565b600082601f8301126124fa578081fd5b813561250861241d826130d3565b915080825283602082850101111561251f57600080fd5b8060208401602084013760009082016020015292915050565b600060a08284031215612549578081fd5b61255360a061308c565b905081358152602082013560208201526040820135604082015260608201356060820152608082013567ffffffffffffffff81111561259157600080fd5b61259d848285016124ea565b60808301525092915050565b6000602082840312156125ba578081fd5b8135611c1e81613127565b6000602082840312156125d6578081fd5b8151611c1e81613127565b6000806000606084860312156125f5578182fd5b833561260081613127565b92506020840135915060408401356126178161313f565b809150509250925092565b60008060408385031215612634578182fd5b825167ffffffffffffffff8082111561264b578384fd5b81850186601f82011261265c578485fd5b8051925061266c61241d846130b3565b80848252602080830192508084018a82838902870101111561268c578889fd5b8894505b868510156126b75780516126a381613127565b845260019490940193928101928101612690565b5088015190965093505050808211156126ce578283fd5b506126db858286016123ff565b9150509250929050565b6000602082840312156126f6578081fd5b8151611c1e8161313f565b60008060408385031215612713578182fd5b823567ffffffffffffffff8082111561272a578384fd5b612736868387016124ea565b9350602085013591508082111561274b578283fd5b506126db858286016124ea565b6000806000806040858703121561276d578081fd5b843567ffffffffffffffff80821115612784578283fd5b612790888389016124a3565b909650945060208701359150808211156127a8578283fd5b506127b5878288016124a3565b95989497509550505050565b6000602082840312156127d2578081fd5b813567ffffffffffffffff808211156127e9578283fd5b818401606081870312156127fb578384fd5b612805606061308c565b9250803582811115612815578485fd5b61282187828401612538565b845250602081013582811115612835578485fd5b61284187828401612538565b602085015250604081013582811115612858578485fd5b612864878284016124ea565b6040850152509195945050505050565b600060208284031215612885578081fd5b5035919050565b60006020828403121561289d578081fd5b5051919050565b60008284528282602086013780602084860101526020601f19601f85011685010190509392505050565b600081518084526128e68160208601602086016130f7565b601f01601f19169290920160200192915050565b6000825161290c8184602087016130f7565b9190910192915050565b6001600160a01b0391909116815260200190565b6001600160a01b03929092168252602082015260400190565b901515815260200190565b600060208252611c1e60208301846128ce565b908152604060208201819052600a908201526919195c1c9958d85d195960b21b606082015260800190565b6000604082526129a06040830186886128a4565b82810360208401526129b38185876128a4565b979650505050505050565b60208082526010908201526f195d9a59195b98d9481d1bdbc81bdb1960821b604082015260600190565b6020808252818101527f6d616c6963696f757320766f746520736c617368206e6f7420656e61626c6564604082015260600190565b6020808252601690820152751d985b1a59185d1bdc881b9bdd081b5a59dc985d195960521b604082015260600190565b60208082526019908201527f74686520636f6e7472616374206e6f7420696e69742079657400000000000000604082015260600190565b6020808252602b908201527f746865206d616c6963696f757320766f746520736c6173682073636f7065206f60408201526a7574206f662072616e676560a81b606082015260800190565b6020808252601a908201527f6e6f2076696f6c6174696f6e206f6620766f74652072756c6573000000000000604082015260600190565b6020808252818101527f7468652066656c6f6e795468726573686f6c64206f7574206f662072616e6765604082015260600190565b6020808252602b908201527f6c656e677468206f6620656e61626c654d616c6963696f7573566f7465536c6160408201526a0e6d040dad2e6dac2e8c6d60ab1b606082015260800190565b60208082526017908201527f766572696679207369676e6174757265206661696c6564000000000000000000604082015260600190565b6020808252600e908201526d696e70757420746f6f206c6f6e6760901b604082015260600190565b60208082526019908201527f7372634e756d20626967676572207468616e207461724e756d00000000000000604082015260600190565b60208082526027908201527f6c656e677468206f66206d697364656d65616e6f725468726573686f6c64206d6040820152660d2e6dac2e8c6d60cb1b606082015260800190565b60208082526013908201527274776f206964656e746963616c20766f74657360681b604082015260600190565b60208082526030908201527f746865206d6573736167652073656e646572206d7573742062652076616c696460408201526f185d1bdc94d95d0818dbdb9d1c9858dd60821b606082015260800190565b60208082526023908201527f6c656e677468206f662066656c6f6e79536c61736853636f7065206d69736d616040820152620e8c6d60eb1b606082015260800190565b6020808252601490820152736761737072696365206973206e6f74207a65726f60601b604082015260600190565b60208082526029908201527f6c656e677468206f662066656c6f6e79536c617368526577617264526174696f604082015268040dad2e6dac2e8c6d60bb1b606082015260800190565b6020808252601590820152741d9bdd195059191c881a5cc81b9bdd08199bdd5b99605a1b604082015260600190565b6020808252602e908201527f746865206d6573736167652073656e646572206d75737420626520676f76657260408201526d1b985b98d94818dbdb9d1c9858dd60921b606082015260800190565b60208082526022908201527f6c656e677468206f662066656c6f6e795468726573686f6c64206d69736d61746040820152610c6d60f31b606082015260800190565b6020808252602a908201527f7468652066656c6f6e7920736c6173682072657761726420726174696f206f7560408201526974206f662072616e676560b01b606082015260800190565b60208082526019908201527f74686520636f6e747261637420616c726561647920696e697400000000000000604082015260600190565b6020808252600c908201526b32b6b83a3c903432b0b232b960a11b604082015260600190565b60208082526025908201527f746865206d697364656d65616e6f725468726573686f6c64206f7574206f662060408201526472616e676560d81b606082015260800190565b6020808252602d908201527f746865206d6573736167652073656e646572206d75737420626520746865206260408201526c3637b1b590383937b23ab1b2b960991b606082015260800190565b6020808252600d908201526c756e6b6e6f776e20706172616d60981b604082015260600190565b6020808252601490820152731d185c99d95d08189b1bd8dac81d1bdbc81bdb1960621b604082015260600190565b6020808252818101527f63616e206e6f7420736c61736820747769636520696e206f6e6520626c6f636b604082015260600190565b61ffff91909116815260200190565b90815260200190565b60008382526040602083015261304d60408301846128ce565b949350505050565b918252602082015260400190565b92835260208301919091521515604082015260600190565b63ffffffff91909116815260200190565b60405181810167ffffffffffffffff811182821017156130ab57600080fd5b604052919050565b600067ffffffffffffffff8211156130c9578081fd5b5060209081020190565b600067ffffffffffffffff8211156130e9578081fd5b50601f01601f191660200190565b60005b838110156131125781810151838201526020016130fa565b83811115613121576000848401525b50505050565b6001600160a01b038116811461313c57600080fd5b50565b801515811461313c57600080fdfea164736f6c6343000604000a","linkReferences":{}},"methodIdentifiers":{"CODE_OK()":"ab51bb96","DECREASE_RATE()":"ac0af629","FELONY_THRESHOLD()":"c80d4b8f","GOVERNOR_ADDR()":"df8079e9","GOV_HUB_ADDR()":"9dc09262","GOV_TOKEN_ADDR()":"28087028","INIT_FELONY_SLASH_REWARD_RATIO()":"dcc6f156","INIT_FELONY_SLASH_SCOPE()":"3306ccca","MISDEMEANOR_THRESHOLD()":"7912a65d","SLASH_CONTRACT_ADDR()":"43756e5c","STAKE_CREDIT_ADDR()":"7e434d54","STAKE_HUB_ADDR()":"aa82dce1","SYSTEM_REWARD_ADDR()":"c81b1662","TIMELOCK_ADDR()":"51b4dce3","VALIDATOR_CONTRACT_ADDR()":"f9a2bbc7","alreadyInit()":"a78abc16","chainID()":"adc879e9","clean()":"fc4333cd","downtimeSlash(address,uint256,bool)":"28aa02b1","enableMaliciousVoteSlash()":"22d1e80b","felonySlashRewardRatio()":"50055f90","felonySlashScope()":"9f804f5f","felonyThreshold()":"389f4f71","getSlashIndicator(address)":"37c8dab9","getSlashThresholds()":"8256ace6","indicators(address)":"23bac5a2","init()":"e1c7392a","misdemeanorThreshold()":"567a372d","previousHeight()":"62b72cf5","sendFelonyPackage(address)":"5bfb4990","slash(address)":"c96be4cb","submitDoubleSignEvidence(bytes,bytes)":"27962118","submitFinalityViolationEvidence(((uint256,bytes32,uint256,bytes32,bytes),(uint256,bytes32,uint256,bytes32,bytes),bytes))":"cc844b73","updateParam(string,bytes)":"ac431751","validators(uint256)":"35aa2e44"},"id":1}