{"abi":[{"type":"receive","stateMutability":"payable"},{"type":"function","name":"CODE_OK","inputs":[],"outputs":[{"name":"","type":"uint32","internalType":"uint32"}],"stateMutability":"view"},{"type":"function","name":"GOVERNOR_ADDR","inputs":[],"outputs":[{"name":"","type":"address","internalType":"address"}],"stateMutability":"view"},{"type":"function","name":"GOV_HUB_ADDR","inputs":[],"outputs":[{"name":"","type":"address","internalType":"address"}],"stateMutability":"view"},{"type":"function","name":"GOV_TOKEN_ADDR","inputs":[],"outputs":[{"name":"","type":"address","internalType":"address"}],"stateMutability":"view"},{"type":"function","name":"MAX_REWARDS","inputs":[],"outputs":[{"name":"","type":"uint256","internalType":"uint256"}],"stateMutability":"view"},{"type":"function","name":"SLASH_CONTRACT_ADDR","inputs":[],"outputs":[{"name":"","type":"address","internalType":"address"}],"stateMutability":"view"},{"type":"function","name":"STAKE_CREDIT_ADDR","inputs":[],"outputs":[{"name":"","type":"address","internalType":"address"}],"stateMutability":"view"},{"type":"function","name":"STAKE_HUB_ADDR","inputs":[],"outputs":[{"name":"","type":"address","internalType":"address"}],"stateMutability":"view"},{"type":"function","name":"SYSTEM_REWARD_ADDR","inputs":[],"outputs":[{"name":"","type":"address","internalType":"address"}],"stateMutability":"view"},{"type":"function","name":"TIMELOCK_ADDR","inputs":[],"outputs":[{"name":"","type":"address","internalType":"address"}],"stateMutability":"view"},{"type":"function","name":"VALIDATOR_CONTRACT_ADDR","inputs":[],"outputs":[{"name":"","type":"address","internalType":"address"}],"stateMutability":"view"},{"type":"function","name":"alreadyInit","inputs":[],"outputs":[{"name":"","type":"bool","internalType":"bool"}],"stateMutability":"view"},{"type":"function","name":"chainID","inputs":[],"outputs":[{"name":"","type":"uint16","internalType":"uint16"}],"stateMutability":"view"},{"type":"function","name":"claimRewards","inputs":[{"name":"to","type":"address","internalType":"address payable"},{"name":"amount","type":"uint256","internalType":"uint256"}],"outputs":[{"name":"","type":"uint256","internalType":"uint256"}],"stateMutability":"nonpayable"},{"type":"function","name":"isOperator","inputs":[{"name":"addr","type":"address","internalType":"address"}],"outputs":[{"name":"","type":"bool","internalType":"bool"}],"stateMutability":"view"},{"type":"function","name":"numOperator","inputs":[],"outputs":[{"name":"","type":"uint256","internalType":"uint256"}],"stateMutability":"view"},{"type":"function","name":"updateParam","inputs":[{"name":"key","type":"string","internalType":"string"},{"name":"value","type":"bytes","internalType":"bytes"}],"outputs":[],"stateMutability":"nonpayable"},{"type":"event","name":"addOperator","inputs":[{"name":"operator","type":"address","indexed":true,"internalType":"address"}],"anonymous":false},{"type":"event","name":"deleteOperator","inputs":[{"name":"operator","type":"address","indexed":true,"internalType":"address"}],"anonymous":false},{"type":"event","name":"paramChange","inputs":[{"name":"key","type":"string","indexed":false,"internalType":"string"},{"name":"value","type":"bytes","indexed":false,"internalType":"bytes"}],"anonymous":false},{"type":"event","name":"receiveDeposit","inputs":[{"name":"from","type":"address","indexed":true,"internalType":"address"},{"name":"amount","type":"uint256","indexed":false,"internalType":"uint256"}],"anonymous":false},{"type":"event","name":"rewardEmpty","inputs":[],"anonymous":false},{"type":"event","name":"rewardTo","inputs":[{"name":"to","type":"address","indexed":true,"internalType":"address"},{"name":"amount","type":"uint256","indexed":false,"internalType":"uint256"}],"anonymous":false}],"bytecode":{"object":"0x608060405234801561001057600080fd5b50610b0c806100206000396000f3fe6080604052600436106101025760003560e01c8063a78abc1611610095578063adc879e911610064578063adc879e91461039e578063c81b1662146103ca578063df8079e9146103df578063f9a2bbc7146103f4578063fb5478b31461040957610146565b8063a78abc1614610277578063aa82dce11461028c578063ab51bb96146102a1578063ac431751146102cf57610146565b80636d70f7ae116100d15780636d70f7ae146101cd5780637e434d54146102145780639a99b4f0146102295780639dc092621461026257610146565b8063280870281461014b5780633a0b0eff1461017c57806343756e5c146101a357806351b4dce3146101b857610146565b366101465734156101445760408051348152905133917f6c98249d85d88c3753a04a22230f595e4dc8d3dc86c34af35deeeedc861b89db919081900360200190a25b005b600080fd5b34801561015757600080fd5b5061016061041e565b604080516001600160a01b039092168252519081900360200190f35b34801561018857600080fd5b50610191610424565b60408051918252519081900360200190f35b3480156101af57600080fd5b5061016061042a565b3480156101c457600080fd5b50610160610430565b3480156101d957600080fd5b50610200600480360360208110156101f057600080fd5b50356001600160a01b0316610436565b604080519115158252519081900360200190f35b34801561022057600080fd5b50610160610454565b34801561023557600080fd5b506101916004803603604081101561024c57600080fd5b506001600160a01b03813516906020013561045a565b34801561026e57600080fd5b506101606105a4565b34801561028357600080fd5b506102006105aa565b34801561029857600080fd5b506101606105b3565b3480156102ad57600080fd5b506102b66105b9565b6040805163ffffffff9092168252519081900360200190f35b3480156102db57600080fd5b50610144600480360360408110156102f257600080fd5b81019060208101813564010000000081111561030d57600080fd5b82018360208201111561031f57600080fd5b8035906020019184600183028401116401000000008311171561034157600080fd5b91939092909160208101903564010000000081111561035f57600080fd5b82018360208201111561037157600080fd5b8035906020019184600183028401116401000000008311171561039357600080fd5b5090925090506105be565b3480156103aa57600080fd5b506103b3610941565b6040805161ffff9092168252519081900360200190f35b3480156103d657600080fd5b50610160610946565b3480156103eb57600080fd5b5061016061094c565b34801561040057600080fd5b50610160610952565b34801561041557600080fd5b50610191610958565b61200581565b60015481565b61100181565b61200681565b6001600160a01b031660009081526002602052604090205460ff1690565b61200381565b6000805460ff166104765760006001818155815460ff19161790555b3360009081526002602052604090205460ff166104c45760405162461bcd60e51b815260040180806020018281038252602b815260200180610a4c602b913960400191505060405180910390fd5b60004783106104d357476104d5565b825b9050674563918244f400008111156104f25750674563918244f400005b8015610573576040516001600160a01b0385169082156108fc029083906000818181858888f1935050505015801561052e573d6000803e3d6000fd5b506040805182815290516001600160a01b038616917ff8b71c64315fc33b2ead2adfa487955065152a8ac33d9d5193aafd7f45dc15a0919081900360200190a261059d565b6040517fe589651933c2457488cc0d8e0941518abf748e799435e4e396d9c4d0b2db2d4d90600090a15b9392505050565b61100781565b60005460ff1681565b61200281565b600081565b33611007146105fe5760405162461bcd60e51b815260040180806020018281038252602e815260200180610aa6602e913960400191505060405180910390fd5b61066084848080601f0160208091040260200160405190810160405280939291908181526020018383808284376000920191909152505060408051808201909152600b81526a30b23227b832b930ba37b960a91b602082015291506109649050565b1561073857606082828080601f01602080910402602001604051908101604052809392919081815260200183838082843760009201919091525050825192935050601490911490506106e35760405162461bcd60e51b815260040180806020018281038252602c815260200180610ad4602c913960400191505060405180910390fd5b60148101516001600160a01b038116600081815260026020526040808220805460ff19166001179055517f9870d7fe5d112134c55844951dedf365363006d9c588db07c4c85af6322a06199190a250506108af565b61079d84848080601f0160208091040260200160405190810160405280939291908181526020018383808284376000920191909152505060408051808201909152600e81526d3232b632ba32a7b832b930ba37b960911b602082015291506109649050565b1561087257606082828080601f01602080910402602001604051908101604052809392919081815260200183838082843760009201919091525050825192935050601490911490506108205760405162461bcd60e51b815260040180806020018281038252602f815260200180610a77602f913960400191505060405180910390fd5b60148101516001600160a01b038116600081815260026020526040808220805460ff19169055517fb40992a19dba61ea600e87fce607102bf5908dc89076217b6ca6ae195224f7029190a250506108af565b6040805162461bcd60e51b815260206004820152600d60248201526c756e6b6e6f776e20706172616d60981b604482015290519081900360640190fd5b7f6cdb0ac70ab7f2e2d035cca5be60d89906f2dede7648ddbd7402189c1eeed17a848484846040518080602001806020018381038352878782818152602001925080828437600083820152601f01601f191690910184810383528581526020019050858580828437600083820152604051601f909101601f19169092018290039850909650505050505050a150505050565b603881565b61100281565b61200481565b61100081565b674563918244f4000081565b6000816040516020018082805190602001908083835b602083106109995780518252601f19909201916020918201910161097a565b6001836020036101000a03801982511681845116808217855250505050505090500191505060405160208183030381529060405280519060200120836040516020018082805190602001908083835b60208310610a075780518252601f1990920191602091820191016109e8565b6001836020036101000a038019825116818451168082178552505050505050905001915050604051602081830303815290604052805190602001201490509291505056fe6f6e6c79206f70657261746f7220697320616c6c6f77656420746f2063616c6c20746865206d6574686f646c656e677468206f662076616c756520666f722064656c6574654f70657261746f722073686f756c64206265203230746865206d6573736167652073656e646572206d75737420626520676f7665726e616e636520636f6e74726163746c656e677468206f662076616c756520666f72206164644f70657261746f722073686f756c64206265203230a164736f6c6343000604000a","linkReferences":{}},"methodIdentifiers":{"CODE_OK()":"ab51bb96","GOVERNOR_ADDR()":"df8079e9","GOV_HUB_ADDR()":"9dc09262","GOV_TOKEN_ADDR()":"28087028","MAX_REWARDS()":"fb5478b3","SLASH_CONTRACT_ADDR()":"43756e5c","STAKE_CREDIT_ADDR()":"7e434d54","STAKE_HUB_ADDR()":"aa82dce1","SYSTEM_REWARD_ADDR()":"c81b1662","TIMELOCK_ADDR()":"51b4dce3","VALIDATOR_CONTRACT_ADDR()":"f9a2bbc7","alreadyInit()":"a78abc16","chainID()":"adc879e9","claimRewards(address,uint256)":"9a99b4f0","isOperator(address)":"6d70f7ae","numOperator()":"3a0b0eff","updateParam(string,bytes)":"ac431751"},"id":3}