{"abi":[{"type":"receive","stateMutability":"payable"},{"type":"function","name":"BLOCK_FEES_RATIO_SCALE","inputs":[],"outputs":[{"name":"","type":"uint256","internalType":"uint256"}],"stateMutability":"view"},{"type":"function","name":"BURN_ADDRESS","inputs":[],"outputs":[{"name":"","type":"address","internalType":"address"}],"stateMutability":"view"},{"type":"function","name":"CODE_OK","inputs":[],"outputs":[{"name":"","type":"uint32","internalType":"uint32"}],"stateMutability":"view"},{"type":"function","name":"GOVERNOR_ADDR","inputs":[],"outputs":[{"name":"","type":"address","internalType":"address"}],"stateMutability":"view"},{"type":"function","name":"GOV_HUB_ADDR","inputs":[],"outputs":[{"name":"","type":"address","internalType":"address"}],"stateMutability":"view"},{"type":"function","name":"GOV_TOKEN_ADDR","inputs":[],"outputs":[{"name":"","type":"address","internalType":"address"}],"stateMutability":"view"},{"type":"function","name":"INIT_BURN_RATIO","inputs":[],"outputs":[{"name":"","type":"uint256","internalType":"uint256"}],"stateMutability":"view"},{"type":"function","name":"INIT_MAINTAIN_SLASH_SCALE","inputs":[],"outputs":[{"name":"","type":"uint256","internalType":"uint256"}],"stateMutability":"view"},{"type":"function","name":"INIT_MAX_NUM_OF_MAINTAINING","inputs":[],"outputs":[{"name":"","type":"uint256","internalType":"uint256"}],"stateMutability":"view"},{"type":"function","name":"INIT_NUM_OF_CABINETS","inputs":[],"outputs":[{"name":"","type":"uint256","internalType":"uint256"}],"stateMutability":"view"},{"type":"function","name":"INIT_SYSTEM_REWARD_RATIO","inputs":[],"outputs":[{"name":"","type":"uint256","internalType":"uint256"}],"stateMutability":"view"},{"type":"function","name":"INIT_VALIDATORSET_BYTES","inputs":[],"outputs":[{"name":"","type":"bytes","internalType":"bytes"}],"stateMutability":"view"},{"type":"function","name":"MAX_SYSTEM_REWARD_BALANCE","inputs":[],"outputs":[{"name":"","type":"uint256","internalType":"uint256"}],"stateMutability":"view"},{"type":"function","name":"SLASH_CONTRACT_ADDR","inputs":[],"outputs":[{"name":"","type":"address","internalType":"address"}],"stateMutability":"view"},{"type":"function","name":"STAKE_CREDIT_ADDR","inputs":[],"outputs":[{"name":"","type":"address","internalType":"address"}],"stateMutability":"view"},{"type":"function","name":"STAKE_HUB_ADDR","inputs":[],"outputs":[{"name":"","type":"address","internalType":"address"}],"stateMutability":"view"},{"type":"function","name":"SYSTEM_REWARD_ADDR","inputs":[],"outputs":[{"name":"","type":"address","internalType":"address"}],"stateMutability":"view"},{"type":"function","name":"TIMELOCK_ADDR","inputs":[],"outputs":[{"name":"","type":"address","internalType":"address"}],"stateMutability":"view"},{"type":"function","name":"VALIDATOR_CONTRACT_ADDR","inputs":[],"outputs":[{"name":"","type":"address","internalType":"address"}],"stateMutability":"view"},{"type":"function","name":"alreadyInit","inputs":[],"outputs":[{"name":"","type":"bool","internalType":"bool"}],"stateMutability":"view"},{"type":"function","name":"burnRatio","inputs":[],"outputs":[{"name":"","type":"uint256","internalType":"uint256"}],"stateMutability":"view"},{"type":"function","name":"canEnterMaintenance","inputs":[{"name":"index","type":"uint256","internalType":"uint256"}],"outputs":[{"name":"","type":"bool","internalType":"bool"}],"stateMutability":"view"},{"type":"function","name":"chainID","inputs":[],"outputs":[{"name":"","type":"uint16","internalType":"uint16"}],"stateMutability":"view"},{"type":"function","name":"currentValidatorSet","inputs":[{"name":"","type":"uint256","internalType":"uint256"}],"outputs":[{"name":"consensusAddress","type":"address","internalType":"address"},{"name":"feeAddress","type":"address","internalType":"address payable"},{"name":"BBCFeeAddress","type":"address","internalType":"address"},{"name":"votingPower","type":"uint64","internalType":"uint64"},{"name":"jailed","type":"bool","internalType":"bool"},{"name":"incoming","type":"uint256","internalType":"uint256"}],"stateMutability":"view"},{"type":"function","name":"currentValidatorSetMap","inputs":[{"name":"","type":"address","internalType":"address"}],"outputs":[{"name":"","type":"uint256","internalType":"uint256"}],"stateMutability":"view"},{"type":"function","name":"currentVoteAddrFullSet","inputs":[{"name":"","type":"uint256","internalType":"uint256"}],"outputs":[{"name":"","type":"bytes","internalType":"bytes"}],"stateMutability":"view"},{"type":"function","name":"deposit","inputs":[{"name":"valAddr","type":"address","internalType":"address"}],"outputs":[],"stateMutability":"payable"},{"type":"function","name":"distributeFinalityReward","inputs":[{"name":"valAddrs","type":"address[]","internalType":"address[]"},{"name":"weights","type":"uint256[]","internalType":"uint256[]"}],"outputs":[],"stateMutability":"nonpayable"},{"type":"function","name":"enterMaintenance","inputs":[],"outputs":[],"stateMutability":"nonpayable"},{"type":"function","name":"exitMaintenance","inputs":[],"outputs":[],"stateMutability":"nonpayable"},{"type":"function","name":"felony","inputs":[{"name":"validator","type":"address","internalType":"address"}],"outputs":[],"stateMutability":"nonpayable"},{"type":"function","name":"getCurrentValidatorIndex","inputs":[{"name":"validator","type":"address","internalType":"address"}],"outputs":[{"name":"","type":"uint256","internalType":"uint256"}],"stateMutability":"view"},{"type":"function","name":"getIncoming","inputs":[{"name":"validator","type":"address","internalType":"address"}],"outputs":[{"name":"","type":"uint256","internalType":"uint256"}],"stateMutability":"view"},{"type":"function","name":"getLivingValidators","inputs":[],"outputs":[{"name":"","type":"address[]","internalType":"address[]"},{"name":"","type":"bytes[]","internalType":"bytes[]"}],"stateMutability":"view"},{"type":"function","name":"getMiningValidators","inputs":[],"outputs":[{"name":"","type":"address[]","internalType":"address[]"},{"name":"","type":"bytes[]","internalType":"bytes[]"}],"stateMutability":"view"},{"type":"function","name":"getTurnLength","inputs":[],"outputs":[{"name":"","type":"uint256","internalType":"uint256"}],"stateMutability":"view"},{"type":"function","name":"getValidators","inputs":[],"outputs":[{"name":"","type":"address[]","internalType":"address[]"}],"stateMutability":"view"},{"type":"function","name":"getWorkingValidatorCount","inputs":[],"outputs":[{"name":"workingValidatorCount","type":"uint256","internalType":"uint256"}],"stateMutability":"view"},{"type":"function","name":"init","inputs":[],"outputs":[],"stateMutability":"nonpayable"},{"type":"function","name":"isCurrentValidator","inputs":[{"name":"validator","type":"address","internalType":"address"}],"outputs":[{"name":"","type":"bool","internalType":"bool"}],"stateMutability":"view"},{"type":"function","name":"isMonitoredForMaliciousVote","inputs":[{"name":"voteAddr","type":"bytes","internalType":"bytes"}],"outputs":[{"name":"","type":"bool","internalType":"bool"}],"stateMutability":"view"},{"type":"function","name":"isSystemRewardIncluded","inputs":[],"outputs":[{"name":"","type":"bool","internalType":"bool"}],"stateMutability":"view"},{"type":"function","name":"isWorkingValidator","inputs":[{"name":"index","type":"uint256","internalType":"uint256"}],"outputs":[{"name":"","type":"bool","internalType":"bool"}],"stateMutability":"view"},{"type":"function","name":"maintainSlashScale","inputs":[],"outputs":[{"name":"","type":"uint256","internalType":"uint256"}],"stateMutability":"view"},{"type":"function","name":"maxNumOfCandidates","inputs":[],"outputs":[{"name":"","type":"uint256","internalType":"uint256"}],"stateMutability":"view"},{"type":"function","name":"maxNumOfMaintaining","inputs":[],"outputs":[{"name":"","type":"uint256","internalType":"uint256"}],"stateMutability":"view"},{"type":"function","name":"maxNumOfWorkingCandidates","inputs":[],"outputs":[{"name":"","type":"uint256","internalType":"uint256"}],"stateMutability":"view"},{"type":"function","name":"misdemeanor","inputs":[{"name":"validator","type":"address","internalType":"address"}],"outputs":[],"stateMutability":"nonpayable"},{"type":"function","name":"numOfCabinets","inputs":[],"outputs":[{"name":"","type":"uint256","internalType":"uint256"}],"stateMutability":"view"},{"type":"function","name":"numOfMaintaining","inputs":[],"outputs":[{"name":"","type":"uint256","internalType":"uint256"}],"stateMutability":"view"},{"type":"function","name":"previousHeight","inputs":[],"outputs":[{"name":"","type":"uint256","internalType":"uint256"}],"stateMutability":"view"},{"type":"function","name":"previousVoteAddrFullSet","inputs":[{"name":"","type":"uint256","internalType":"uint256"}],"outputs":[{"name":"","type":"bytes","internalType":"bytes"}],"stateMutability":"view"},{"type":"function","name":"systemRewardAntiMEVRatio","inputs":[],"outputs":[{"name":"","type":"uint256","internalType":"uint256"}],"stateMutability":"view"},{"type":"function","name":"systemRewardBaseRatio","inputs":[],"outputs":[{"name":"","type":"uint256","internalType":"uint256"}],"stateMutability":"view"},{"type":"function","name":"totalInComing","inputs":[],"outputs":[{"name":"","type":"uint256","internalType":"uint256"}],"stateMutability":"view"},{"type":"function","name":"turnLength","inputs":[],"outputs":[{"name":"","type":"uint256","internalType":"uint256"}],"stateMutability":"view"},{"type":"function","name":"updateParam","inputs":[{"name":"key","type":"string","internalType":"string"},{"name":"value","type":"bytes","internalType":"bytes"}],"outputs":[],"stateMutability":"nonpayable"},{"type":"function","name":"updateValidatorSetV2","inputs":[{"name":"_consensusAddrs","type":"address[]","internalType":"address[]"},{"name":"_votingPowers","type":"uint64[]","internalType":"uint64[]"},{"name":"_voteAddrs","type":"bytes[]","internalType":"bytes[]"}],"outputs":[],"stateMutability":"nonpayable"},{"type":"function","name":"validatorExtraSet","inputs":[{"name":"","type":"uint256","internalType":"uint256"}],"outputs":[{"name":"enterMaintenanceHeight","type":"uint256","internalType":"uint256"},{"name":"isMaintaining","type":"bool","internalType":"bool"},{"name":"voteAddress","type":"bytes","internalType":"bytes"}],"stateMutability":"view"},{"type":"event","name":"deprecatedDeposit","inputs":[{"name":"validator","type":"address","indexed":true,"internalType":"address"},{"name":"amount","type":"uint256","indexed":false,"internalType":"uint256"}],"anonymous":false},{"type":"event","name":"deprecatedFinalityRewardDeposit","inputs":[{"name":"validator","type":"address","indexed":true,"internalType":"address"},{"name":"amount","type":"uint256","indexed":false,"internalType":"uint256"}],"anonymous":false},{"type":"event","name":"feeBurned","inputs":[{"name":"amount","type":"uint256","indexed":false,"internalType":"uint256"}],"anonymous":false},{"type":"event","name":"finalityRewardDeposit","inputs":[{"name":"validator","type":"address","indexed":true,"internalType":"address"},{"name":"amount","type":"uint256","indexed":false,"internalType":"uint256"}],"anonymous":false},{"type":"event","name":"paramChange","inputs":[{"name":"key","type":"string","indexed":false,"internalType":"string"},{"name":"value","type":"bytes","indexed":false,"internalType":"bytes"}],"anonymous":false},{"type":"event","name":"systemTransfer","inputs":[{"name":"amount","type":"uint256","indexed":false,"internalType":"uint256"}],"anonymous":false},{"type":"event","name":"validatorDeposit","inputs":[{"name":"validator","type":"address","indexed":true,"internalType":"address"},{"name":"amount","type":"uint256","indexed":false,"internalType":"uint256"}],"anonymous":false},{"type":"event","name":"validatorEnterMaintenance","inputs":[{"name":"validator","type":"address","indexed":true,"internalType":"address"}],"anonymous":false},{"type":"event","name":"validatorExitMaintenance","inputs":[{"name":"validator","type":"address","indexed":true,"internalType":"address"}],"anonymous":false},{"type":"event","name":"validatorFelony","inputs":[{"name":"validator","type":"address","indexed":true,"internalType":"address"},{"name":"amount","type":"uint256","indexed":false,"internalType":"uint256"}],"anonymous":false},{"type":"event","name":"validatorMisdemeanor","inputs":[{"name":"validator","type":"address","indexed":true,"internalType":"address"},{"name":"amount","type":"uint256","indexed":false,"internalType":"uint256"}],"anonymous":false},{"type":"event","name":"validatorSetUpdated","inputs":[],"anonymous":false}],"bytecode":{"object":"0x608060405234801561001057600080fd5b5061733a80620000216000396000f3fe6080604052600436106103905760003560e01c80639369d7de116101dc578063c81b166211610102578063e40716a1116100a0578063f92eb86b1161006f578063f92eb86b14610948578063f9a2bbc71461095d578063fccc281314610972578063fd4ad81f1461098757610397565b8063e40716a1146108e0578063ea321e49146108f5578063eb57e20214610915578063f340fa011461093557610397565b8063d58918ae116100dc578063d58918ae1461088c578063d68fb56a146108a1578063df8079e9146108b6578063e1c7392a146108cb57610397565b8063c81b166214610842578063cb75a59214610857578063ce910b0c1461086c57610397565b8063ac4317511161017a578063b7ab4db511610149578063b7ab4db5146107e1578063b8cf4ef114610803578063c466689d14610818578063c6d339451461082d57610397565b8063ac4317511461076a578063ad3c9da61461078a578063adc879e9146107aa578063aef198a9146107cc57610397565b8063a5422d5c116101b6578063a5422d5c14610709578063a78abc161461071e578063aa82dce114610733578063ab51bb961461074857610397565b80639369d7de146106ca5780639dc09262146106df5780639fe0f816146106f457610397565b80635192c82c116102c157806378dfed4a1161025f5780638a7beb011161022e5780638a7beb011461066b5780638b5ad0c9146106805780638c5d749d146106955780638d19a410146106aa57610397565b806378dfed4a146106175780637a84ca2a1461062c5780637e434d5414610641578063820dcaa81461065657610397565b8063565c56b31161029b578063565c56b31461058357806360eba4fe146105a357806362b72cf5146105d05780636969a25c146105e557610397565b80635192c82c1461053957806351b4dce31461054e57806355614fcc1461056357610397565b8063321d398a1161032e5780633b071dcc116103085780633b071dcc146104d757806343756e5c146104fa57806345cf9daf1461050f5780634df6e0c31461052457610397565b8063321d398a1461046a5780633365af3a1461049757806335409f7f146104b757610397565b80631e4c15241161036a5780631e4c1524146103f35780631ff18069146104135780632808702814610428578063300c35671461044a57610397565b806304c4fec61461039c57806307a56847146103b35780631bd14ed8146103de57610397565b3661039757005b600080fd5b3480156103a857600080fd5b506103b16109b6565b005b3480156103bf57600080fd5b506103c8610a2a565b6040516103d59190616bf1565b60405180910390f35b3480156103ea57600080fd5b506103c8610a30565b3480156103ff57600080fd5b506103b161040e366004615dbb565b610a36565b34801561041f57600080fd5b506103c8610e8d565b34801561043457600080fd5b5061043d610e93565b6040516103d59190616050565b34801561045657600080fd5b506103b1610465366004615c41565b610e99565b34801561047657600080fd5b5061048a610485366004615f3a565b6111e2565b6040516103d59190616165565b3480156104a357600080fd5b5061048a6104b2366004615f3a565b6112b1565b3480156104c357600080fd5b506103b16104d2366004615c09565b611362565b3480156104e357600080fd5b506104ec6114c7565b6040516103d59291906160f5565b34801561050657600080fd5b5061043d6117a3565b34801561051b57600080fd5b506103c86117a9565b34801561053057600080fd5b506104ec6117af565b34801561054557600080fd5b506103c8611949565b34801561055a57600080fd5b5061043d61194f565b34801561056f57600080fd5b5061048a61057e366004615c09565b611955565b34801561058f57600080fd5b506103c861059e366004615c09565b611991565b3480156105af57600080fd5b506105c36105be366004615f3a565b6119e2565b6040516103d59190616170565b3480156105dc57600080fd5b506103c8611a88565b3480156105f157600080fd5b50610605610600366004615f3a565b611a8e565b6040516103d59695949392919061607d565b34801561062357600080fd5b506103c8611af2565b34801561063857600080fd5b506103c8611af8565b34801561064d57600080fd5b5061043d611afe565b34801561066257600080fd5b506103c8611b04565b34801561067757600080fd5b5061048a611b0a565b34801561068c57600080fd5b506103c8611b13565b3480156106a157600080fd5b506103c8611b19565b3480156106b657600080fd5b506103c86106c5366004615c09565b611b36565b3480156106d657600080fd5b506103b1611b76565b3480156106eb57600080fd5b5061043d611c8a565b34801561070057600080fd5b506103c8611c90565b34801561071557600080fd5b506105c3611c95565b34801561072a57600080fd5b5061048a611cb4565b34801561073f57600080fd5b5061043d611cbd565b34801561075457600080fd5b5061075d611cc3565b6040516103d59190616c24565b34801561077657600080fd5b506103b1610785366004615ede565b611cc8565b34801561079657600080fd5b506103c86107a5366004615c09565b612731565b3480156107b657600080fd5b506107bf612743565b6040516103d59190616be2565b3480156107d857600080fd5b506103c8612748565b3480156107ed57600080fd5b506107f6612755565b6040516103d591906160e2565b34801561080f57600080fd5b506103c8612840565b34801561082457600080fd5b506103c8612845565b34801561083957600080fd5b506103c861284b565b34801561084e57600080fd5b5061043d612850565b34801561086357600080fd5b506103c8612856565b34801561087857600080fd5b506105c3610887366004615f3a565b61285c565b34801561089857600080fd5b506103c8612869565b3480156108ad57600080fd5b506103c861286f565b3480156108c257600080fd5b5061043d6128ae565b3480156108d757600080fd5b506103b16128b4565b3480156108ec57600080fd5b506103c8612a58565b34801561090157600080fd5b5061048a610910366004615e9f565b612a5e565b34801561092157600080fd5b506103b1610930366004615c09565b612be4565b6103b1610943366004615c09565b612cec565b34801561095457600080fd5b506103c86130a2565b34801561096957600080fd5b5061043d6130a8565b34801561097e57600080fd5b5061043d6130ae565b34801561099357600080fd5b506109a76109a2366004615f3a565b6130b4565b6040516103d593929190616bfa565b60006109c133611b36565b9050600881815481106109d057fe5b600091825260209091206001601690920201015460ff16610a0c5760405162461bcd60e51b8152600401610a039061691e565b60405180910390fd5b6000610a1661286f565b9050610a253383836001613176565b505050565b60065481565b600c5481565b334114610a555760405162461bcd60e51b8152600401610a0390616a30565b3a15610a735760405162461bcd60e51b8152600401610a039061685d565b8251610b96576040516363a036b560e01b81526000906060908190612002906363a036b590610aa89086908190600401616042565b60006040518083038186803b158015610ac057600080fd5b505afa158015610ad4573d6000803e3d6000fd5b505050506040513d6000823e601f3d908101601f19168201604052610afc9190810190615ca9565b8451604080518281526020808402820101909152959b5092985096509194509092508015610b34578160200160208202803683370190505b50945060005b8651811015610b91576402540be400838281518110610b5557fe5b602002602001015181610b6457fe5b04868281518110610b7157fe5b6001600160401b0390921660209283029190910190910152600101610b3a565b505050505b8251604080518281526020808402820101909152606090828015610bd457816020015b610bc16156c7565b815260200190600190039081610bb95790505b50905060005b82811015610c7e576040518060c00160405280878381518110610bf957fe5b60200260200101516001600160a01b0316815260200160006001600160a01b0316815260200160006001600160a01b03168152602001868381518110610c3b57fe5b60200260200101516001600160401b031681526020016000151581526020016000815250828281518110610c6b57fe5b6020908102919091010152600101610bda565b50606080610c8c8386613368565b9150915060005b600154811015610d8257600060018281548110610cac57fe5b906000526020600020906004020160030154905080600014610d7957600060018381548110610cd757fe5b9060005260206000209060040201600301819055506120026001600160a01b031663092193ab8260018581548110610d0b57fe5b60009182526020909120600491820201546040516001600160e01b031960e086901b168152610d46926001600160a01b039092169101616050565b6000604051808303818588803b158015610d5f57600080fd5b505af1158015610d73573d6000803e3d6000fd5b50505050505b50600101610c93565b504715610df0577f6ecc855f9440a9282c90913bbc91619fd44f5ec0b462af28d127b116f130aa4d47604051610db89190616bf1565b60405180910390a1604051611002904780156108fc02916000818181858888f19350505050158015610dee573d6000803e3d6000fd5b505b6000600255815115610e0657610e068282613852565b6110016001600160a01b031663fc4333cd6040518163ffffffff1660e01b8152600401600060405180830381600087803b158015610e4357600080fd5b505af1158015610e57573d6000803e3d6000fd5b50506040517fedd8d7296956dd970ab4de3f2fc03be2b0ffc615d20cd4c72c6e44f928630ebf925060009150a150505050505050565b60025481565b61200581565b334114610eb85760405162461bcd60e51b8152600401610a0390616a30565b600d544311610ed95760405162461bcd60e51b8152600401610a03906164d1565b3a15610ef75760405162461bcd60e51b8152600401610a039061685d565b60005460ff16610f195760405162461bcd60e51b8152600401610a0390616355565b60006110023168056bc75e2d63100000811115610f5057610f498168056bc75e2d6310000063ffffffff61404116565b9150610f57565b50506111d8565b6040516309a99b4f60e41b815261100290639a99b4f090610f7e9030908690600401616064565b602060405180830381600087803b158015610f9857600080fd5b505af1158015610fac573d6000803e3d6000fd5b505050506040513d601f19601f82011682018060405250810190610fd09190615f52565b915081610fde5750506111d8565b6000805b8481101561100c57858582818110610ff657fe5b9050602002013582019150806001019050610fe2565b508061101a575050506111d8565b6000806000805b898110156111d0578489898381811061103657fe5b9050602002013588028161104657fe5b0493508a8a8281811061105557fe5b905060200201602081019061106a9190615c09565b6001600160a01b0381166000908152600360205260409020549093509150811561118657600060018084038154811061109f57fe5b9060005260206000209060040201905080600201601c9054906101000a900460ff161561110c57836001600160a01b03167fb9c75cbbfde137c4281689580799ef5f52144e78858f776a5979b2b212137d85866040516110ff9190616bf1565b60405180910390a2611180565b60025461111f908663ffffffff61408316565b6002556003810154611137908663ffffffff61408316565b60038201556040516001600160a01b038516907fcb0aad6cf9cd03bdf6137e359f541c42f38b39f007cae8e89e88aa7d8c6617b290611177908890616bf1565b60405180910390a25b506111c8565b826001600160a01b03167fb9c75cbbfde137c4281689580799ef5f52144e78858f776a5979b2b212137d85856040516111bf9190616bf1565b60405180910390a25b600101611021565b505050505050505b505043600d555050565b60015460009082106111f6575060006112ac565b60006001600160a01b03166001838154811061120e57fe5b60009182526020909120600490910201546001600160a01b0316148061123e5750600554158061123e5750600754155b8061124d575060055460065410155b8061125e575061125c826112b1565b155b80611287575060006008838154811061127357fe5b906000526020600020906016020160000154115b8061129b57506001611297612755565b5111155b156112a8575060006112ac565b5060015b919050565b60015460009082106112c5575060006112ac565b600854821061130257600182815481106112db57fe5b9060005260206000209060040201600201601c9054906101000a900460ff161590506112ac565b6001828154811061130f57fe5b9060005260206000209060040201600201601c9054906101000a900460ff1615801561135c57506008828154811061134357fe5b600091825260209091206001601690920201015460ff16155b92915050565b600854611420576113716156fc565b60015460005b8181101561141c57600880546001810182556000919091528351600080516020616cff8339815191526016909202918201908155602080860151600080516020616d1f8339815191528401805460ff19169115159190911790556040860151805187946113f893600080516020616cdf83398151915290910192019061572b565b50606082015161140e90600383019060136157a5565b505050806001019050611377565b5050505b336110011480611431575033612002145b61144d5760405162461bcd60e51b8152600401610a039061638c565b6001600160a01b0381166000908152600360205260409020548061147157506114c4565b60018103905060006008828154811061148657fe5b600091825260209091206001601690920201015460ff1690506114a983836140a8565b80156114b25750805b15610a25576006805460001901905550505b50565b60015460609081906000805b8281101561151a57600181815481106114e857fe5b9060005260206000209060040201600201601c9054906101000a900460ff16611512576001909101905b6001016114d3565b50606081604051908082528060200260200182016040528015611547578160200160208202803683370190505b50905060608260405190808252806020026020018201604052801561158057816020015b606081526020019060019003908161156b5790505b50600854600094509091508414156116fb5760005b848110156116f557600181815481106115aa57fe5b9060005260206000209060040201600201601c9054906101000a900460ff166116ed57600181815481106115da57fe5b600091825260209091206004909102015483516001600160a01b039091169084908690811061160557fe5b60200260200101906001600160a01b031690816001600160a01b0316815250506008818154811061163257fe5b600091825260209182902060026016909202018101805460408051601f6000196101006001861615020190931694909404918201859004850284018501905280835291929091908301828280156116ca5780601f1061169f576101008083540402835291602001916116ca565b820191906000526020600020905b8154815290600101906020018083116116ad57829003601f168201915b50505050508285815181106116db57fe5b60209081029190910101526001909301925b600101611595565b50611797565b60005b84811015611795576001818154811061171357fe5b9060005260206000209060040201600201601c9054906101000a900460ff1661178d576001818154811061174357fe5b600091825260209091206004909102015483516001600160a01b039091169084908690811061176e57fe5b6001600160a01b03909216602092830291909101909101526001909301925b6001016116fe565b505b909450925050505b9091565b61100181565b60055481565b6060806000600b549050600080600954116117cb5760156117cf565b6009545b905060c860606117dd612755565b905060606117ea8261446b565b90508382511161180257909550935061179f92505050565b84848351031015611814578382510394505b841561185457600083438161182557fe5b04905061183a83838389890360008b8b6145d9565b6118528383838989038a8a038b8c8c8b5103016145d9565b505b606084604051908082528060200260200182016040528015611880578160200160208202803683370190505b5090506060856040519080825280602002602001820160405280156118b957816020015b60608152602001906001900390816118a45790505b50905060005b8681101561193a578481815181106118d357fe5b60200260200101518382815181106118e757fe5b60200260200101906001600160a01b031690816001600160a01b03168152505083818151811061191357fe5b602002602001015182828151811061192757fe5b60209081029190910101526001016118bf565b50909750955050505050509091565b60045481565b61200681565b6001600160a01b0381166000908152600360205260408120548061197d5760009150506112ac565b6000190161198a816112b1565b9392505050565b6001600160a01b038116600090815260036020526040812054806119b95760009150506112ac565b6001808203815481106119c857fe5b906000526020600020906004020160030154915050919050565b600e81815481106119ef57fe5b600091825260209182902001805460408051601f6002600019610100600187161502019094169390930492830185900485028101850190915281815293509091830182828015611a805780601f10611a5557610100808354040283529160200191611a80565b820191906000526020600020905b815481529060010190602001808311611a6357829003601f168201915b505050505081565b600d5481565b60018181548110611a9b57fe5b600091825260209091206004909102018054600182015460028301546003909301546001600160a01b0392831694509082169291821691600160a01b81046001600160401b031691600160e01b90910460ff169086565b6103e881565b60095481565b61200381565b61271081565b60105460ff1681565b60075481565b600060115460001415611b2e57506001611b33565b506011545b90565b6001600160a01b03811660009081526003602052604081205480611b6c5760405162461bcd60e51b8152600401610a03906169b8565b6000190192915050565b600854611c3457611b856156fc565b60015460005b81811015611c3057600880546001810182556000919091528351600080516020616cff8339815191526016909202918201908155602080860151600080516020616d1f8339815191528401805460ff1916911515919091179055604086015180518794611c0c93600080516020616cdf83398151915290910192019061572b565b506060820151611c2290600383019060136157a5565b505050806001019050611b8b565b5050505b600554611c415760036005555b600754611c4e5760026007555b6000611c5933611b36565b9050611c64816111e2565b611c805760405162461bcd60e51b8152600401610a03906167d9565b6114c43382614730565b61100781565b600381565b6040518061062001604052806105ef8152602001616d3f6105ef913981565b60005460ff1681565b61200281565b600081565b60005460ff16611cea5760405162461bcd60e51b8152600401610a0390616355565b3361100714611d0b5760405162461bcd60e51b8152600401610a039061688b565b611d6b84848080601f016020809104026020016040519081016040528093929190818152602001838380828437600092019190915250506040805180820190915260098152686275726e526174696f60b81b602082015291506147c89050565b15611e205760208114611d905760405162461bcd60e51b8152600401610a03906161b5565b604080516020601f8401819004810282018101909252828152600091611dce9185858083850183828082843760009201919091525061482192505050565b9050612710611dfa601254611dee600c548561408390919063ffffffff16565b9063ffffffff61408316565b1115611e185760405162461bcd60e51b8152600401610a03906165a7565b6004556126ee565b611e8a84848080601f016020809104026020016040519081016040528093929190818152602001838380828437600092019190915250506040805180820190915260138152726d61784e756d4f664d61696e7461696e696e6760681b602082015291506147c89050565b15611f245760208114611eaf5760405162461bcd60e51b8152600401610a03906161ec565b604080516020601f8401819004810282018101909252828152600091611eed9185858083850183828082843760009201919091525061482192505050565b60095490915080611efc575060155b808210611f1b5760405162461bcd60e51b8152600401610a0390616513565b506005556126ee565b611f8d84848080601f016020809104026020016040519081016040528093929190818152602001838380828437600092019190915250506040805180820190915260128152716d61696e7461696e536c6173685363616c6560701b602082015291506147c89050565b156120265760208114611fb25760405162461bcd60e51b8152600401610a03906162db565b604080516020601f8401819004810282018101909252828152600091611ff09185858083850183828082843760009201919091525061482192505050565b90506000811180156120025750600a81105b61201e5760405162461bcd60e51b8152600401610a0390616ac5565b6007556126ee565b61209a84848080601f0160208091040260200160405190810160405280939291908181526020018383808284376000920191909152505060408051808201909152601981527f6d61784e756d4f66576f726b696e6743616e6469646174657300000000000000602082015291506147c89050565b1561212957602081146120bf5760405162461bcd60e51b8152600401610a039061628f565b604080516020601f84018190048102820181019092528281526000916120fd9185858083850183828082843760009201919091525061482192505050565b9050600a548111156121215760405162461bcd60e51b8152600401610a03906166b0565b600b556126ee565b61219284848080601f016020809104026020016040519081016040528093929190818152602001838380828437600092019190915250506040805180820190915260128152716d61784e756d4f6643616e6469646174657360701b602082015291506147c89050565b1561221457602081146121b75760405162461bcd60e51b8152600401610a03906168d9565b604080516020601f84018190048102820181019092528281526000916121f59185858083850183828082843760009201919091525061482192505050565b600a819055600b5490915081101561220e57600a54600b555b506126ee565b61227884848080601f0160208091040260200160405190810160405280939291908181526020018383808284376000920191909152505060408051808201909152600d81526c6e756d4f66436162696e65747360981b602082015291506147c89050565b1561239d576020811461229d5760405162461bcd60e51b8152600401610a0390616320565b604080516020601f84018190048102820181019092528281526000916122db9185858083850183828082843760009201919091525061482192505050565b9050600081116122fd5760405162461bcd60e51b8152600401610a0390616489565b60006120026001600160a01b031663c473318f6040518163ffffffff1660e01b815260040160206040518083038186803b15801561233a57600080fd5b505afa15801561234e573d6000803e3d6000fd5b505050506040513d601f19601f820116820180604052508101906123729190615f52565b9050808211156123945760405162461bcd60e51b8152600401610a0390616232565b506009556126ee565b61240984848080601f0160208091040260200160405190810160405280939291908181526020018383808284376000920191909152505060408051808201909152601581527473797374656d52657761726442617365526174696f60581b602082015291506147c89050565b156124b2576020811461242e5760405162461bcd60e51b8152600401610a0390616a7d565b604080516020601f840181900481028201810190925282815260009161246c9185858083850183828082843760009201919091525061482192505050565b905061271061248c601254611dee6004548561408390919063ffffffff16565b11156124aa5760405162461bcd60e51b8152600401610a03906163fa565b600c556126ee565b61252684848080601f0160208091040260200160405190810160405280939291908181526020018383808284376000920191909152505060408051808201909152601881527f73797374656d526577617264416e74694d4556526174696f0000000000000000602082015291506147c89050565b156125cf576020811461254b5760405162461bcd60e51b8152600401610a0390616636565b604080516020601f84018190048102820181019092528281526000916125899185858083850183828082843760009201919091525061482192505050565b90506127106125a9600c54611dee6004548561408390919063ffffffff16565b11156125c75760405162461bcd60e51b8152600401610a039061674a565b6012556126ee565b61263084848080601f0160208091040260200160405190810160405280939291908181526020018383808284376000920191909152505060408051808201909152600a8152690e8eae4dc98cadccee8d60b31b602082015291506147c89050565b156126d657602081146126555760405162461bcd60e51b8152600401610a0390616570565b604080516020601f84018190048102820181019092528281526000916126939185858083850183828082843760009201919091525061482192505050565b9050600381101580156126a7575060408111155b806126b25750806001145b6126ce5760405162461bcd60e51b8152600401610a0390616b22565b6011556126ee565b60405162461bcd60e51b8152600401610a0390616b72565b7f6cdb0ac70ab7f2e2d035cca5be60d89906f2dede7648ddbd7402189c1eeed17a848484846040516127239493929190616183565b60405180910390a150505050565b60036020526000908152604090205481565b603881565b68056bc75e2d6310000081565b6001546060906000805b8281101561278457612770816112b1565b1561277c578160010191505b60010161275f565b506060816040519080825280602002602001820160405280156127b1578160200160208202803683370190505b5090506000915060005b83811015612838576127cc816112b1565b1561283057600181815481106127de57fe5b600091825260209091206004909102015482516001600160a01b039091169083908590811061280957fe5b60200260200101906001600160a01b031690816001600160a01b0316815250508260010192505b6001016127bb565b509250505090565b601581565b61027181565b600281565b61100281565b60115481565b600f81815481106119ef57fe5b60125481565b6000612879612755565b5190506000806009541161288e576015612892565b6009545b9050808211156128a0578091505b816128aa57600191505b5090565b61200481565b60005460ff16156128d75760405162461bcd60e51b8152600401610a039061694a565b6128df6157d2565b60006129056040518061062001604052806105ef8152602001616d3f6105ef9139614826565b91509150806129265760405162461bcd60e51b8152600401610a03906169ef565b60005b826020015151811015612a465760018360200151828151811061294857fe5b6020908102919091018101518254600181810185556000948552838520835160049093020180546001600160a01b039384166001600160a01b03199182161782558486015182840180549186169183169190911790556040850151600283018054606088015160808901511515600160e01b0260ff60e01b196001600160401b03909216600160a01b0267ffffffffffffffff60a01b199590991692909516919091179290921695909517161790925560a090920151600391820155918601518051918501939185908110612a1957fe5b602090810291909101810151516001600160a01b0316825281019190915260400160002055600101612929565b50506000805460ff1916600117905550565b600a5481565b600f54600090815b81811015612b6757612b4f85858080601f01602080910402602001604051908101604052809392919081815260200183838082843760009201919091525050600f80549092508591508110612ab757fe5b600091825260209182902001805460408051601f6002600019610100600187161502019094169390930492830185900485028101850190915281815292830182828015612b455780601f10612b1a57610100808354040283529160200191612b45565b820191906000526020600020905b815481529060010190602001808311612b2857829003601f168201915b50505050506149e2565b15612b5f5760019250505061135c565b600101612a66565b50600e5460005b81811015612bd857612bbf86868080601f01602080910402602001604051908101604052809392919081815260200183838082843760009201919091525050600e80549092508591508110612ab757fe5b15612bd0576001935050505061135c565b600101612b6e565b50600095945050505050565b3361100114612c055760405162461bcd60e51b8152600401610a0390616b99565b600854612cc357612c146156fc565b60015460005b81811015612cbf57600880546001810182556000919091528351600080516020616cff8339815191526016909202918201908155602080860151600080516020616d1f8339815191528401805460ff1916911515919091179055604086015180518794612c9b93600080516020616cdf83398151915290910192019061572b565b506060820151612cb190600383019060136157a5565b505050806001019050612c1a565b5050505b6000612cce82614a46565b9050612cd9816111e2565b15612ce857612ce88282614730565b5050565b334114612d0b5760405162461bcd60e51b8152600401610a0390616a30565b60005460ff16612d2d5760405162461bcd60e51b8152600401610a0390616355565b60003411612d4d5760405162461bcd60e51b8152600401610a0390616681565b3a15612d6b5760405162461bcd60e51b8152600401610a039061685d565b6001600160a01b03811660009081526003602052604090205460105434919060ff16612dab57610271600c556103e86004556010805460ff191660011790555b600c546011546001108015612dc257506000601254115b15612de7576001601154036011544381612dd857fe5b066012540281612de457fe5b04015b600083118015612df75750600081115b15612ea4576000612e20612710612e14348563ffffffff614bc916565b9063ffffffff614c0316565b90508015612ea2576040516110029082156108fc029083906000818181858888f19350505050158015612e57573d6000803e3d6000fd5b507f6ecc855f9440a9282c90913bbc91619fd44f5ec0b462af28d127b116f130aa4d81604051612e879190616bf1565b60405180910390a1612e9f848263ffffffff61404116565b93505b505b600083118015612eb657506000600454115b15612f5c576000612ed8612710612e1460045434614bc990919063ffffffff16565b90508015612f5a5760405161dead9082156108fc029083906000818181858888f19350505050158015612f0f573d6000803e3d6000fd5b507f627059660ea01c4733a328effb2294d2f86905bf806da763a89cee254de8bee581604051612f3f9190616bf1565b60405180910390a1612f57848263ffffffff61404116565b93505b505b811561305a576000600180840381548110612f7357fe5b9060005260206000209060040201905080600201601c9054906101000a900460ff1615612fe057846001600160a01b03167ff177e5d6c5764d79c32883ed824111d9b13f5668cf6ab1cc12dd36791dd955b485604051612fd39190616bf1565b60405180910390a2613054565b600254612ff3908563ffffffff61408316565b600255600381015461300b908563ffffffff61408316565b60038201556040516001600160a01b038616907f93a090ecc682c002995fad3c85b30c5651d7fd29b0be5da9d784a3302aedc0559061304b908790616bf1565b60405180910390a25b5061309c565b836001600160a01b03167ff177e5d6c5764d79c32883ed824111d9b13f5668cf6ab1cc12dd36791dd955b4846040516130939190616bf1565b60405180910390a25b50505050565b600b5481565b61100081565b61dead81565b600881815481106130c157fe5b6000918252602091829020601691909102018054600180830154600280850180546040805161010096831615969096026000190190911692909204601f810188900488028501880190925281845293965060ff9091169491929183018282801561316c5780601f106131415761010080835404028352916020019161316c565b820191906000526020600020905b81548152906001019060200180831161314f57829003601f168201915b5050505050905083565b600060075460001480613187575082155b806131925750600654155b1561319f57506000613360565b600660008154600190039190508190555060006131ea600754612e1486612e1460088a815481106131cc57fe5b6000918252602090912060169091020154439063ffffffff61404116565b90506000600886815481106131fb57fe5b906000526020600020906016020160010160006101000a81548160ff0219169083151502179055506000806110016001600160a01b0316638256ace66040518163ffffffff1660e01b8152600401604080518083038186803b15801561326057600080fd5b505afa158015613274573d6000803e3d6000fd5b505050506040513d601f19601f820116820180604052508101906132989190615f6a565b9150915060009350808310613316576132b188886140a8565b506040516328aa02b160e01b8152611001906328aa02b1906132db908b9087908a906004016160bf565b600060405180830381600087803b1580156132f557600080fd5b505af1158015613309573d6000803e3d6000fd5b5050505060019350613328565b8183106133285761332688614a46565b505b6040516001600160a01b038916907fb9d38178dc641ff1817967a63c9078cbcd955a9f1fcd75e0e3636de615d44d3b90600090a25050505b949350505050565b60608060008080808061337961286f565b6001549091505b80156135ab576001810392506008838154811061339957fe5b600091825260209091206001601690920201015460ff166133b9576135a2565b600183815481106133c657fe5b600091825260208220600490910201546001600160a01b031695506133f090869085908590613176565b9350836133fc576135a2565b60405163436aa28360e11b81526000908190612002906386d5450690613426908a90600401616050565b60206040518083038186803b15801561343e57600080fd5b505afa158015613452573d6000803e3d6000fd5b505050506040513d601f19601f820116820180604052508101906134769190615c25565b90506001600160a01b038116156134ff576040516302ceee9160e11b81526120029063059ddd22906134ac908490600401616050565b60206040518083038186803b1580156134c457600080fd5b505afa1580156134d8573d6000803e3d6000fd5b505050506040513d601f19601f820116820180604052508101906134fc9190615c25565b91505b60005b8c5181101561359e57876001600160a01b03168d828151811061352157fe5b6020026020010151600001516001600160a01b0316148061356a5750826001600160a01b03168d828151811061355357fe5b6020026020010151600001516001600160a01b0316145b156135965760018d828151811061357d57fe5b602090810291909101015190151560809091015261359e565b600101613502565b5050505b60001901613380565b5060005b8951811015613618578981815181106135c457fe5b60200260200101516080015180613604575060006001600160a01b03168a82815181106135ed57fe5b6020026020010151600001516001600160a01b0316145b15613610578560010195505b6001016135af565b50885185106137005760408051600180825281830190925290816020015b61363e6156c7565b815260200190600190039081613636575050604080516001808252818301909252919850602082015b60608152602001906001900390816136675790505095508860008151811061368b57fe5b6020026020010151876000815181106136a057fe5b6020026020010181905250876000815181106136b857fe5b6020026020010151866000815181106136cd57fe5b60200260200101819052506000876000815181106136e757fe5b6020908102919091010151901515608090910152613845565b8489510360405190808252806020026020018201604052801561373d57816020015b61372a6156c7565b8152602001906001900390816137225790505b5096508489510360405190808252806020026020018201604052801561377757816020015b60608152602001906001900390816137625790505b5095506000915060005b89518110156138435789818151811061379657fe5b6020026020010151608001511580156137d9575060006001600160a01b03168a82815181106137c157fe5b6020026020010151600001516001600160a01b031614155b1561383b578981815181106137ea57fe5b60200260200101518884815181106137fe57fe5b602002602001018190525088818151811061381557fe5b602002602001015187848151811061382957fe5b60200260200101819052508260010192505b600101613781565b505b50505050505b9250929050565b600154825160005b8281101561396f57600161386c6156c7565b6001838154811061387957fe5b600091825260208083206040805160c08101825260049490940290910180546001600160a01b0390811685526001820154811693850193909352600281015492831691840191909152600160a01b82046001600160401b03166060840152600160e01b90910460ff16151560808301526003015460a082015291505b848110156139435787818151811061390957fe5b6020026020010151600001516001600160a01b031682600001516001600160a01b0316141561393b5760009250613943565b6001016138f5565b5081156139655780516001600160a01b03166000908152600360205260408120555b505060010161385a565b5080821115613a2e57805b82811015613a2c57600180548061398d57fe5b60008281526020812060046000199093019283020180546001600160a01b0319908116825560018201805490911690556002810180546001600160e81b031916905560030155905560088054806139e057fe5b60008281526020812060166000199093019283020181815560018101805460ff1916905590613a1260028301826157f6565b613a2060038301600061583a565b5050905560010161397a565b505b6000818310613a3d5781613a3f565b825b905060005b81811015613de357613af1868281518110613a5b57fe5b602002602001015160018381548110613a7057fe5b60009182526020918290206040805160c08101825260049390930290910180546001600160a01b0390811684526001820154811694840194909452600281015493841691830191909152600160a01b83046001600160401b03166060830152600160e01b90920460ff161515608082015260039091015460a0820152614c45565b613ca5578060010160036000888481518110613b0957fe5b6020026020010151600001516001600160a01b03166001600160a01b0316815260200190815260200160002081905550858181518110613b4557fe5b602002602001015160018281548110613b5a57fe5b6000918252602091829020835160049092020180546001600160a01b039283166001600160a01b0319918216178255928401516001820180549184169185169190911790556040840151600282018054606087015160808801511515600160e01b0260ff60e01b196001600160401b03909216600160a01b0267ffffffffffffffff60a01b1995909716929097169190911792909216939093171692909217905560a0909101516003909101558451859082908110613c1557fe5b602002602001015160088281548110613c2a57fe5b90600052602060002090601602016002019080519060200190613c4e92919061572b565b50600060088281548110613c5e57fe5b60009182526020822060169190910201600101805460ff1916921515929092179091556008805483908110613c8f57fe5b6000918252602090912060169091020155613ddb565b858181518110613cb157fe5b60200260200101516060015160018281548110613cca57fe5b906000526020600020906004020160020160146101000a8154816001600160401b0302191690836001600160401b03160217905550613d90858281518110613d0e57fe5b602002602001015160088381548110613d2357fe5b600091825260209182902060026016909202018101805460408051601f600019610100600186161502019093169490940491820185900485028401850190528083529192909190830182828015612b455780601f10612b1a57610100808354040283529160200191612b45565b613ddb57848181518110613da057fe5b602002602001015160088281548110613db557fe5b90600052602060002090601602016002019080519060200190613dd992919061572b565b505b600101613a44565b5082821115613fbb57613df46156fc565b835b83811015613fb857858181518110613e0a57fe5b602002602001015182604001819052506001878281518110613e2857fe5b6020908102919091018101518254600181810185556000948552838520835160049093020180546001600160a01b039384166001600160a01b0319918216178255848601518284018054918616918316919091179055604080860151600284018054606089015160808a01511515600160e01b0260ff60e01b196001600160401b03909216600160a01b0267ffffffffffffffff60a01b1995909a1692909616919091179290921696909617169190911790935560a09093015160039093019290925560088054928301815590935284516016909102600080516020616cff833981519152810191825585830151600080516020616d1f8339815191528201805491151560ff1990921691909117905592850151805186949293613f5e93600080516020616cdf8339815191520192019061572b565b506060820151613f7490600383019060136157a5565b5050508060010160036000898481518110613f8b57fe5b602090810291909101810151516001600160a01b0316825281019190915260400160002055600101613df6565b50505b613fc3614ca1565b613fcb614e83565b6000600681905560015493505b8381101561403957600060088281548110613fef57fe5b60009182526020822060169190910201600101805460ff191692151592909217909155600880548390811061402057fe5b6000918252602090912060169091020155600101613fd8565b505050505050565b600061198a83836040518060400160405280601e81526020017f536166654d6174683a207375627472616374696f6e206f766572666c6f770000815250615071565b60008282018381101561198a5760405162461bcd60e51b8152600401610a03906163c3565b600080600183815481106140b857fe5b906000526020600020906004020160030154905060006001808054905003905060016140e2612755565b5111614117576000600185815481106140f757fe5b90600052602060002090600402016003018190555060009250505061135c565b846001600160a01b03167f3b6f9ef90462b512a1293ecec018670bf7b7f1876fb727590a8a6d7643130a70836040516141509190616bf1565b60405180910390a26001600160a01b038516600090815260036020526040812055835b6001546000190181101561433d576001816001018154811061419157fe5b9060005260206000209060040201600182815481106141ac57fe5b60009182526020909120825460049092020180546001600160a01b03199081166001600160a01b0393841617825560018085015481840180548416918616919091179055600280860180549185018054909416919095161780835584546001600160401b03600160a01b91829004160267ffffffffffffffff60a01b1990911617808355935460ff600160e01b918290041615150260ff60e01b19909416939093179055600392830154920191909155600880549091830190811061426d57fe5b90600052602060002090601602016008828154811061428857fe5b600091825260209091208254601690920201908155600180830154818301805460ff909216151560ff19909216919091179055600280840180546142df938386019390821615610100026000190190911604615849565b506142f2600382810190840160136158be565b5090505080600101600360006001848154811061430b57fe5b600091825260208083206004909202909101546001600160a01b03168352820192909252604001902055600101614173565b50600180548061434957fe5b60008281526020812060046000199093019283020180546001600160a01b0319908116825560018201805490911690556002810180546001600160e81b0319169055600301559055600880548061439c57fe5b60008281526020812060166000199093019283020181815560018101805460ff19169055906143ce60028301826157f6565b6143dc60038301600061583a565b5050905560008183816143eb57fe5b049050801561445f5760015460005b8181101561445c57614433836001838154811061441357fe5b90600052602060002090600402016003015461408390919063ffffffff16565b6001828154811061444057fe5b60009182526020909120600360049092020101556001016143fa565b50505b50600195945050505050565b6001548151604080518281526020808402820101909152606092919083908280156144aa57816020015b60608152602001906001900390816144955790505b5060085490915083146144c15792506112ac915050565b60005b828110156145d05760086001600360008985815181106144e057fe5b60200260200101516001600160a01b03166001600160a01b0316815260200190815260200160002054038154811061451457fe5b600091825260209182902060026016909202018101805460408051601f6000196101006001861615020190931694909404918201859004850284018501905280835291929091908301828280156145ac5780601f10614581576101008083540402835291602001916145ac565b820191906000526020600020905b81548152906001019060200180831161458f57829003601f168201915b50505050508282815181106145bd57fe5b60209081029190910101526001016144c4565b50949350505050565b60005b8281101561472657600082878388016040516020016145fc929190616042565b6040516020818303038152906040528051906020012060001c8161461c57fe5b0690508085018287011461471d576000898388018151811061463a57fe5b602002602001015190506060898489018151811061465457fe5b602002602001015190508a8388018151811061466c57fe5b60200260200101518b858a018151811061468257fe5b60200260200101906001600160a01b031690816001600160a01b031681525050818b848901815181106146b157fe5b60200260200101906001600160a01b031690816001600160a01b03168152505089838801815181106146df57fe5b60200260200101518a858a01815181106146f557fe5b6020026020010181905250808a8489018151811061470f57fe5b602002602001018190525050505b506001016145dc565b5050505050505050565b600680546001908101909155600880548390811061474a57fe5b906000526020600020906016020160010160006101000a81548160ff021916908315150217905550436008828154811061478057fe5b600091825260208220601690910201919091556040516001600160a01b038416917ff62981a567ec3cec866c6fa93c55bcdf841d6292d18b8d522ececa769375d82d91a25050565b6000816040516020016147db9190616026565b60405160208183030381529060405280519060200120836040516020016148029190616026565b6040516020818303038152906040528051906020012014905092915050565b015190565b61482e6157d2565b60006148386157d2565b6148406158e8565b61485161484c8661509d565b6150c2565b90506000805b6148608361510c565b156149d457806148855761487b6148768461512d565b61517b565b60ff1684526149cc565b80600114156149c75760606148a161489c8561512d565b6151fb565b905080516040519080825280602002602001820160405280156148de57816020015b6148cb6156c7565b8152602001906001900390816148c35790505b508560200181905250805160405190808252806020026020018201604052801561491c57816020015b60608152602001906001900390816149075790505b50604086015260005b81518110156149bc576149366156c7565b6060600061495685858151811061494957fe5b60200260200101516152cc565b92509250925080614976578860009a509a505050505050505050506149dd565b828960200151858151811061498757fe5b602002602001018190525081896040015185815181106149a357fe5b6020026020010181905250505050806001019050614925565b5060019250506149cc565b6149d4565b600101614857565b50919350909150505b915091565b8151815160009160019181148083146149fe5760009250614a3c565b600160208701838101602088015b600284838510011415614a37578051835114614a2b5760009650600093505b60209283019201614a0c565b505050505b5090949350505050565b6001600160a01b03811660009081526003602052604081205480614a6f575060001990506112ac565b600181039050600060018281548110614a8457fe5b9060005260206000209060040201600301549050600060018381548110614aa757fe5b6000918252602090912060036004909202010155600154604051600019909101906001600160a01b038616907f8cd4e147d8af98a9e3b6724021b8bf6aed2e5dac71c38f2dce8161b82585b25d90614b00908590616bf1565b60405180910390a280614b18578293505050506112ac565b6000818381614b2357fe5b0490508015614bbf5760005b84811015614b7157614b48826001838154811061441357fe5b60018281548110614b5557fe5b6000918252602090912060036004909202010155600101614b2f565b50600180549085015b81811015614bbc57614b93836001838154811061441357fe5b60018281548110614ba057fe5b6000918252602090912060036004909202010155600101614b7a565b50505b5091949350505050565b600082614bd85750600061135c565b82820282848281614be557fe5b041461198a5760405162461bcd60e51b8152600401610a039061681c565b600061198a83836040518060400160405280601a81526020017f536166654d6174683a206469766973696f6e206279207a65726f0000000000008152506153e6565b805182516000916001600160a01b039182169116148015614c7f575081602001516001600160a01b031683602001516001600160a01b0316145b801561198a5750506040908101519101516001600160a01b0390811691161490565b600e54600f5480821115614cec57805b82811015614cea57600e805480614cc457fe5b600190038181906000526020600020016000614ce091906157f6565b9055600101614cb1565b505b6000818310614cfb5781614cfd565b825b905060005b81811015614e1557614dba600e8281548110614d1a57fe5b600091825260209182902001805460408051601f6002600019610100600187161502019094169390930492830185900485028101850190915281815292830182828015614da85780601f10614d7d57610100808354040283529160200191614da8565b820191906000526020600020905b815481529060010190602001808311614d8b57829003601f168201915b5050505050600f8381548110612ab757fe5b614e0d57600f8181548110614dcb57fe5b90600052602060002001600e8281548110614de257fe5b906000526020600020019080546001816001161561010002031660029004614e0b929190615849565b505b600101614d02565b5082821115610a2557825b8281101561309c57600e600f8281548110614e3757fe5b6000918252602080832084546001818101875595855291909320929091018054614e7a949390920192909160026101009282161592909202600019011604615849565b50600101614e20565b600f5460085480821115614ece57805b82811015614ecc57600f805480614ea657fe5b600190038181906000526020600020016000614ec291906157f6565b9055600101614e93565b505b6000818310614edd5781614edf565b825b905060005b81811015614ffe57614f9c600f8281548110614efc57fe5b600091825260209182902001805460408051601f6002600019610100600187161502019094169390930492830185900485028101850190915281815292830182828015614f8a5780601f10614f5f57610100808354040283529160200191614f8a565b820191906000526020600020905b815481529060010190602001808311614f6d57829003601f168201915b505050505060088381548110613d2357fe5b614ff65760088181548110614fad57fe5b9060005260206000209060160201600201600f8281548110614fcb57fe5b906000526020600020019080546001816001161561010002031660029004614ff4929190615849565b505b600101614ee4565b5082821115610a2557825b8281101561309c57600f6008828154811061502057fe5b60009182526020808320845460018082018755958552919093206016929092029092016002908101805461506895939094019390926000199082161561010002011604615849565b50600101615009565b600081848411156150955760405162461bcd60e51b8152600401610a039190616170565b505050900390565b6150a5615908565b506040805180820190915281518152602082810190820152919050565b6150ca6158e8565b6150d38261541d565b6150dc57600080fd5b60006150eb8360200151615457565b60208085015160408051808201909152868152920190820152915050919050565b6000615116615908565b505080518051602091820151919092015191011190565b615135615908565b61513e8261510c565b61514757600080fd5b60208201516000615157826154ba565b80830160209586015260408051808201909152908152938401919091525090919050565b80516000901580159061519057508151602110155b61519957600080fd5b60006151a88360200151615457565b905080836000015110156151ce5760405162461bcd60e51b8152600401610a0390616981565b8251602080850151830180519284900392918310156145d057506020919091036101000a90049392505050565b60606152068261541d565b61520f57600080fd5b600061521a8361559b565b905060608160405190808252806020026020018201604052801561525857816020015b615245615908565b81526020019060019003908161523d5790505b509050600061526a8560200151615457565b60208601510190506000805b848110156152c157615287836154ba565b91506040518060400160405280838152602001848152508482815181106152aa57fe5b602090810291909101015291810191600101615276565b509195945050505050565b6152d46156c7565b606060006152e06156c7565b60606152ea6158e8565b6152f3876150c2565b90506000805b6153028361510c565b156153d7578061532d5761531d6153188461512d565b6155f7565b6001600160a01b031685526153cf565b8060011415615355576153426153188461512d565b6001600160a01b031660208601526153cf565b806002141561537d5761536a6153188461512d565b6001600160a01b031660408601526153cf565b80600314156153a9576153926148768461512d565b6001600160401b03166060860152600191506153cf565b80600414156153ca576153c36153be8461512d565b615611565b93506153cf565b6153d7565b6001016152f9565b50929791965091945092505050565b600081836154075760405162461bcd60e51b8152600401610a039190616170565b50600083858161541357fe5b0495945050505050565b805160009061542e575060006112ac565b6020820151805160001a9060c082101561544d576000925050506112ac565b5060019392505050565b8051600090811a60808110156154715760009150506112ac565b60b881108061548c575060c0811080159061548c575060f881105b1561549b5760019150506112ac565b60c08110156154af5760b5190190506112ac565b60f5190190506112ac565b80516000908190811a60808110156154d55760019150615594565b60b88110156154ea57607e1981019150615594565b60c081101561553b57600060b78203600186019550806020036101000a8651049150600181018201935050808310156155355760405162461bcd60e51b8152600401610a039061671f565b50615594565b60f88110156155505760be1981019150615594565b600060f78203600186019550806020036101000a8651049150600181018201935050808310156155925760405162461bcd60e51b8152600401610a039061671f565b505b5092915050565b80516000906155ac575060006112ac565b600080905060006155c08460200151615457565b602085015185519181019250015b808210156155ee576155df826154ba565b820191508260010192506155ce565b50909392505050565b805160009060151461560857600080fd5b61135c8261517b565b805160609061561f57600080fd5b600061562e8360200151615457565b83516040805191839003808352601f19601f8201168301602001909152919250606090828015615665576020820181803683370190505b50905060008160200190506145d08487602001510182858061568657610a25565b5b602081106156a6578251825260209283019290910190601f1901615687565b915181516020939093036101000a6000190180199091169216919091179052565b6040805160c081018252600080825260208201819052918101829052606081018290526080810182905260a081019190915290565b60405180608001604052806000815260200160001515815260200160608152602001615726615922565b905290565b828054600181600116156101000203166002900490600052602060002090601f016020900481019282601f1061576c57805160ff1916838001178555615799565b82800160010185558215615799579182015b8281111561579957825182559160200191906001019061577e565b506128aa929150615941565b8260138101928215615799579160200282018281111561579957825182559160200191906001019061577e565b6040518060600160405280600060ff16815260200160608152602001606081525090565b50805460018160011615610100020316600290046000825580601f1061581c57506114c4565b601f0160209004906000526020600020908101906114c49190615941565b506114c4906013810190615941565b828054600181600116156101000203166002900490600052602060002090601f016020900481019282601f106158825780548555615799565b8280016001018555821561579957600052602060002091601f016020900482015b828111156157995782548255916001019190600101906158a3565b826013810192821561579957918201828111156157995782548255916001019190600101906158a3565b60405180604001604052806158fb615908565b8152602001600081525090565b604051806040016040528060008152602001600081525090565b6040518061026001604052806013906020820280368337509192915050565b611b3391905b808211156128aa5760008155600101615947565b803561135c81616cc9565b805161135c81616cc9565b60008083601f840112615982578182fd5b5081356001600160401b03811115615998578182fd5b602083019150836020808302850101111561384b57600080fd5b600082601f8301126159c2578081fd5b81356159d56159d082616c5b565b616c35565b818152915060208083019084810160005b84811015615a4e578135870188603f820112615a0157600080fd5b83810135615a116159d082616c7a565b81815260408b81848601011115615a2757600080fd5b828185018884013750600091810186019190915285525092820192908201906001016159e6565b505050505092915050565b600082601f830112615a69578081fd5b8151615a776159d082616c5b565b818152915060208083019084810160005b84811015615a4e578151870188603f820112615aa357600080fd5b83810151615ab36159d082616c7a565b81815260408b81848601011115615ac957600080fd5b615ad883888401838701616c9d565b50865250509282019290820190600101615a88565b600082601f830112615afd578081fd5b8151615b0b6159d082616c5b565b818152915060208083019084810181840286018201871015615b2c57600080fd5b60005b84811015615a4e57815184529282019290820190600101615b2f565b600082601f830112615b5b578081fd5b8135615b696159d082616c5b565b818152915060208083019084810181840286018201871015615b8a57600080fd5b6000805b85811015615bbe5782356001600160401b0381168114615bac578283fd5b85529383019391830191600101615b8e565b50505050505092915050565b60008083601f840112615bdb578182fd5b5081356001600160401b03811115615bf1578182fd5b60208301915083602082850101111561384b57600080fd5b600060208284031215615c1a578081fd5b813561198a81616cc9565b600060208284031215615c36578081fd5b815161198a81616cc9565b60008060008060408587031215615c56578283fd5b84356001600160401b0380821115615c6c578485fd5b615c7888838901615971565b90965094506020870135915080821115615c90578384fd5b50615c9d87828801615971565b95989497509550505050565b600080600080600060a08688031215615cc0578081fd5b85516001600160401b0380821115615cd6578283fd5b81880189601f820112615ce7578384fd5b80519250615cf76159d084616c5b565b80848252602080830192508084018d828389028701011115615d17578788fd5b8794505b86851015615d4157615d2d8e82615966565b845260019490940193928101928101615d1b565b508b01519099509350505080821115615d58578283fd5b615d6489838a01615aed565b95506040880151915080821115615d79578283fd5b615d8589838a01615a59565b94506060880151915080821115615d9a578283fd5b50615da788828901615a59565b925050608086015190509295509295909350565b600080600060608486031215615dcf578081fd5b83356001600160401b0380821115615de5578283fd5b81860187601f820112615df6578384fd5b80359250615e066159d084616c5b565b80848252602080830192508084018b828389028701011115615e26578788fd5b8794505b86851015615e5057615e3c8c8261595b565b845260019490940193928101928101615e2a565b509097508801359350505080821115615e67578283fd5b615e7387838801615b4b565b93506040860135915080821115615e88578283fd5b50615e95868287016159b2565b9150509250925092565b60008060208385031215615eb1578182fd5b82356001600160401b03811115615ec6578283fd5b615ed285828601615bca565b90969095509350505050565b60008060008060408587031215615ef3578182fd5b84356001600160401b0380821115615f09578384fd5b615f1588838901615bca565b90965094506020870135915080821115615f2d578384fd5b50615c9d87828801615bca565b600060208284031215615f4b578081fd5b5035919050565b600060208284031215615f63578081fd5b5051919050565b60008060408385031215615f7c578182fd5b505080516020909101519092909150565b6000815180845260208085019450808401835b83811015615fc55781516001600160a01b031687529582019590820190600101615fa0565b509495945050505050565b60008284528282602086013780602084860101526020601f19601f85011685010190509392505050565b60008151808452616012816020860160208601616c9d565b601f01601f19169290920160200192915050565b60008251616038818460208701616c9d565b9190910192915050565b918252602082015260400190565b6001600160a01b0391909116815260200190565b6001600160a01b03929092168252602082015260400190565b6001600160a01b03968716815294861660208601529290941660408401526001600160401b03166060830152911515608082015260a081019190915260c00190565b6001600160a01b0393909316835260208301919091521515604082015260600190565b60006020825261198a6020830184615f8d565b6000604082526161086040830185615f8d565b602083820381850152818551808452828401915082838202850101838801865b8381101561615657601f19878403018552616144838351615ffa565b94860194925090850190600101616128565b50909998505050505050505050565b901515815260200190565b60006020825261198a6020830184615ffa565b600060408252616197604083018688615fd0565b82810360208401526161aa818587615fd0565b979650505050505050565b6020808252601c908201527f6c656e677468206f66206275726e526174696f206d69736d6174636800000000604082015260600190565b60208082526026908201527f6c656e677468206f66206d61784e756d4f664d61696e7461696e696e67206d696040820152650e6dac2e8c6d60d31b606082015260800190565b60208082526038908201527f746865206e756d4f66436162696e657473206d757374206265206c657373207460408201527f68616e206d6178456c656374656456616c696461746f72730000000000000000606082015260800190565b6020808252602c908201527f6c656e677468206f66206d61784e756d4f66576f726b696e6743616e6469646160408201526b0e8cae640dad2e6dac2e8c6d60a31b606082015260800190565b60208082526025908201527f6c656e677468206f66206d61696e7461696e536c6173685363616c65206d69736040820152640dac2e8c6d60db1b606082015260800190565b6020808252818101527f6c656e677468206f66206e756d4f66436162696e657473206d69736d61746368604082015260600190565b60208082526019908201527f74686520636f6e7472616374206e6f7420696e69742079657400000000000000604082015260600190565b6020808252601f908201527f6f6e6c7920736c617368206f72207374616b6548756220636f6e747261637400604082015260600190565b6020808252601b908201527f536166654d6174683a206164646974696f6e206f766572666c6f770000000000604082015260600190565b60208082526063908201527f7468652073797374656d52657761726442617365526174696f20706c7573206260408201527f75726e526174696f20616e642073797374656d526577617264416e74694d455660608201527f526174696f206d757374206265206e6f2067726561746572207468616e20313060808201526203030360ec1b60a082015260c00190565b60208082526028908201527f746865206e756d4f66436162696e657473206d75737420626520677265617465604082015267072207468616e20360c41b606082015260800190565b60208082526022908201527f63616e206e6f7420646f207468697320747769636520696e206f6e6520626c6f604082015261636b60f01b606082015260800190565b60208082526037908201527f746865206d61784e756d4f664d61696e7461696e696e67206d7573742062652060408201527f6c657373207468616e206e756d4f66436162696e657473000000000000000000606082015260800190565b6020808252601d908201527f6c656e677468206f66207475726e4c656e677468206d69736d61746368000000604082015260600190565b60208082526063908201527f746865206275726e526174696f20706c75732073797374656d5265776172644260408201527f617365526174696f20616e642073797374656d526577617264416e74694d455660608201527f526174696f206d757374206265206e6f2067726561746572207468616e20313060808201526203030360ec1b60a082015260c00190565b6020808252602b908201527f6c656e677468206f662073797374656d526577617264416e74694d455652617460408201526a0d2de40dad2e6dac2e8c6d60ab1b606082015260800190565b6020808252601590820152746465706f7369742076616c7565206973207a65726f60581b604082015260600190565b60208082526049908201527f746865206d61784e756d4f66576f726b696e6743616e64696461746573206d7560408201527f7374206265206e6f742067726561746572207468616e206d61784e756d4f6643606082015268616e6469646174657360b81b608082015260a00190565b6020808252601190820152706164646974696f6e206f766572666c6f7760781b604082015260600190565b60208082526063908201527f7468652073797374656d526577617264416e74694d4556526174696f20706c7560408201527f73206275726e526174696f20616e642073797374656d5265776172644261736560608201527f526174696f206d757374206265206e6f2067726561746572207468616e20313060808201526203030360ec1b60a082015260c00190565b60208082526023908201527f63616e206e6f7420656e7465722054656d706f72617279204d61696e74656e616040820152626e636560e81b606082015260800190565b60208082526021908201527f536166654d6174683a206d756c7469706c69636174696f6e206f766572666c6f6040820152607760f81b606082015260800190565b6020808252601490820152736761737072696365206973206e6f74207a65726f60601b604082015260600190565b6020808252602e908201527f746865206d6573736167652073656e646572206d75737420626520676f76657260408201526d1b985b98d94818dbdb9d1c9858dd60921b606082015260800190565b60208082526025908201527f6c656e677468206f66206d61784e756d4f6643616e64696461746573206d69736040820152640dac2e8c6d60db1b606082015260800190565b6020808252601290820152716e6f7420696e206d61696e74656e616e636560701b604082015260600190565b60208082526019908201527f74686520636f6e747261637420616c726561647920696e697400000000000000604082015260600190565b6020808252601a908201527f6c656e677468206973206c657373207468616e206f6666736574000000000000604082015260600190565b60208082526017908201527f6f6e6c792063757272656e742076616c696461746f7273000000000000000000604082015260600190565b60208082526021908201527f6661696c656420746f20706172736520696e69742076616c696461746f7253656040820152601d60fa1b606082015260800190565b6020808252602d908201527f746865206d6573736167652073656e646572206d75737420626520746865206260408201526c3637b1b590383937b23ab1b2b960991b606082015260800190565b60208082526028908201527f6c656e677468206f662073797374656d52657761726442617365526174696f206040820152670dad2e6dac2e8c6d60c31b606082015260800190565b6020808252603e908201527f746865206d61696e7461696e536c6173685363616c65206d757374206265206760408201527f726561746572207468616e203020616e64206c657373207468616e2031300000606082015260800190565b60208082526030908201527f746865207475726e4c656e6774682073686f756c6420626520696e205b332c3660408201526f345d206f7220657175616c20746f203160801b606082015260800190565b6020808252600d908201526c756e6b6e6f776e20706172616d60981b604082015260600190565b60208082526029908201527f746865206d6573736167652073656e646572206d75737420626520736c6173686040820152680818dbdb9d1c9858dd60ba1b606082015260800190565b61ffff91909116815260200190565b90815260200190565b6000848252831515602083015260606040830152616c1b6060830184615ffa565b95945050505050565b63ffffffff91909116815260200190565b6040518181016001600160401b0381118282101715616c5357600080fd5b604052919050565b60006001600160401b03821115616c70578081fd5b5060209081020190565b60006001600160401b03821115616c8f578081fd5b50601f01601f191660200190565b60005b83811015616cb8578181015183820152602001616ca0565b8381111561309c5750506000910152565b6001600160a01b03811681146114c457600080fdfef3f7a9fe364faab93b216da50a3214154f22a0a2b415b23a84c8169e8b636ee5f3f7a9fe364faab93b216da50a3214154f22a0a2b415b23a84c8169e8b636ee3f3f7a9fe364faab93b216da50a3214154f22a0a2b415b23a84c8169e8b636ee4f905ec80f905e8f846942a7cdd959bfe8d9487b2a43b33565295a698f7e294b6a7edd747c0554875d3fc531d19ba1497992c5e941ff80f3f7f110ffd8920a3ac38fdef318fe94a3f86048c27395000f846946488aa4d1955ee33403f8ccb1d4de5fb97c7ade294220f003d8bdfaadf52aa1e55ae4cc485e6794875941a87e90e440a39c99aa9cb5cea0ad6a3f0b2407b86048c27395000f846949ef9f4360c606c7ab4db26b016007d3ad0ab86a0946103af86a874b705854033438383c82575f25bc29418e2db06cbff3e3c5f856410a1838649e760175786048c27395000f84694ee01c3b1283aa067c58eab4709f85e99d46de5fe94ee4b9bfb1871c64e2bcabb1dc382dc8b7c4218a29415904ab26ab0e99d70b51c220ccdcccabee6e29786048c27395000f84694685b1ded8013785d6623cc18d214320b6bb6475994a20ef4e5e4e7e36258dbf51f4d905114cb1b34bc9413e39085dc88704f4394d35209a02b1a9520320c86048c27395000f8469478f3adfc719c99674c072166708589033e2d9afe9448a30d5eaa7b64492a160f139e2da2800ec3834e94055838358c29edf4dcc1ba1985ad58aedbb6be2b86048c27395000f84694c2be4ec20253b8642161bc3f444f53679c1f3d479466f50c616d737e60d7ca6311ff0d9c434197898a94d1d678a2506eeaa365056fe565df8bc8659f28b086048c27395000f846942f7be8361c80a4c1e7e9aaf001d0877f1cfde218945f93992ac37f3e61db2ef8a587a436a161fd210b94ecbc4fb1a97861344dad0867ca3cba2b860411f086048c27395000f84694ce2fd7544e0b2cc94692d4a704debef7bcb613289444abc67b4b2fba283c582387f54c9cba7c34bafa948acc2ab395ded08bb75ce85bf0f95ad2abc51ad586048c27395000f84694b8f7166496996a7da21cf1f1b04d9b3e26a3d077946770572763289aac606e4f327c2f6cc1aa3b3e3b94882d745ed97d4422ca8da1c22ec49d880c4c097286048c27395000f846942d4c407bbe49438ed859fe965b140dcf1aab71a9943ad0939e120f33518fbba04631afe7a3ed6327b194b2bbb170ca4e499a2b0f3cc85ebfa6e8c4dfcbea86048c27395000f846946bbad7cf34b5fa511d8e963dbba288b1960e75d694853b0f6c324d1f4e76c8266942337ac1b0af1a229442498946a51ca5924552ead6fc2af08b94fcba648601d1a94a2000f846944430b3230294d12c6ab2aac5c2cd68e80b16b581947b107f4976a252a6939b771202c28e64e03f52d694795811a7f214084116949fc4f53cedbf189eeab28601d1a94a2000f84694ea0a6e3c511bbd10f4519ece37dc24887e11b55d946811ca77acfb221a49393c193f3a22db829fcc8e9464feb7c04830dd9ace164fc5c52b3f5a29e5018a8601d1a94a2000f846947ae2f5b9e386cd1b50a4550696d957cb4900f03a94e83bcc5077e6b873995c24bac871b5ad856047e19464e48d4057a90b233e026c1041e6012ada897fe88601d1a94a2000f8469482012708dafc9e1b880fd083b32182b869be8e09948e5adc73a2d233a1b496ed3115464dd6c7b887509428b383d324bc9a37f4e276190796ba5a8947f5ed8601d1a94a2000f8469422b81f8e175ffde54d797fe11eb03f9e3bf75f1d94a1c3ef7ca38d8ba80cce3bfc53ebd2903ed21658942767f7447f7b9b70313d4147b795414aecea54718601d1a94a2000f8469468bf0b8b6fb4e317a0f9d6f03eaf8ce6675bc60d94675cfe570b7902623f47e7f59c9664b5f5065dcf94d84f0d2e50bcf00f2fc476e1c57f5ca2d57f625b8601d1a94a2000f846948c4d90829ce8f72d0163c1d5cf348a862d5506309485c42a7b34309bee2ed6a235f86d16f059deec5894cc2cedc53f0fa6d376336efb67e43d167169f3b78601d1a94a2000f8469435e7a025f4da968de7e4d7e4004197917f4070f194b1182abaeeb3b4d8eba7e6a4162eac7ace23d57394c4fd0d870da52e73de2dd8ded19fe3d26f43a1138601d1a94a2000f84694d6caa02bbebaebb5d7e581e4b66559e635f805ff94c07335cf083c1c46a487f0325769d88e163b653694efaff03b42e41f953a925fc43720e45fb61a19938601d1a94a2000a164736f6c6343000604000a","linkReferences":{}},"methodIdentifiers":{"BLOCK_FEES_RATIO_SCALE()":"820dcaa8","BURN_ADDRESS()":"fccc2813","CODE_OK()":"ab51bb96","GOVERNOR_ADDR()":"df8079e9","GOV_HUB_ADDR()":"9dc09262","GOV_TOKEN_ADDR()":"28087028","INIT_BURN_RATIO()":"78dfed4a","INIT_MAINTAIN_SLASH_SCALE()":"c6d33945","INIT_MAX_NUM_OF_MAINTAINING()":"9fe0f816","INIT_NUM_OF_CABINETS()":"b8cf4ef1","INIT_SYSTEM_REWARD_RATIO()":"c466689d","INIT_VALIDATORSET_BYTES()":"a5422d5c","MAX_SYSTEM_REWARD_BALANCE()":"aef198a9","SLASH_CONTRACT_ADDR()":"43756e5c","STAKE_CREDIT_ADDR()":"7e434d54","STAKE_HUB_ADDR()":"aa82dce1","SYSTEM_REWARD_ADDR()":"c81b1662","TIMELOCK_ADDR()":"51b4dce3","VALIDATOR_CONTRACT_ADDR()":"f9a2bbc7","alreadyInit()":"a78abc16","burnRatio()":"5192c82c","canEnterMaintenance(uint256)":"321d398a","chainID()":"adc879e9","currentValidatorSet(uint256)":"6969a25c","currentValidatorSetMap(address)":"ad3c9da6","currentVoteAddrFullSet(uint256)":"ce910b0c","deposit(address)":"f340fa01","distributeFinalityReward(address[],uint256[])":"300c3567","enterMaintenance()":"9369d7de","exitMaintenance()":"04c4fec6","felony(address)":"35409f7f","getCurrentValidatorIndex(address)":"8d19a410","getIncoming(address)":"565c56b3","getLivingValidators()":"3b071dcc","getMiningValidators()":"4df6e0c3","getTurnLength()":"8c5d749d","getValidators()":"b7ab4db5","getWorkingValidatorCount()":"d68fb56a","init()":"e1c7392a","isCurrentValidator(address)":"55614fcc","isMonitoredForMaliciousVote(bytes)":"ea321e49","isSystemRewardIncluded()":"8a7beb01","isWorkingValidator(uint256)":"3365af3a","maintainSlashScale()":"8b5ad0c9","maxNumOfCandidates()":"e40716a1","maxNumOfMaintaining()":"45cf9daf","maxNumOfWorkingCandidates()":"f92eb86b","misdemeanor(address)":"eb57e202","numOfCabinets()":"7a84ca2a","numOfMaintaining()":"07a56847","previousHeight()":"62b72cf5","previousVoteAddrFullSet(uint256)":"60eba4fe","systemRewardAntiMEVRatio()":"d58918ae","systemRewardBaseRatio()":"1bd14ed8","totalInComing()":"1ff18069","turnLength()":"cb75a592","updateParam(string,bytes)":"ac431751","updateValidatorSetV2(address[],uint64[],bytes[])":"1e4c1524","validatorExtraSet(uint256)":"fd4ad81f"},"id":4}